:020000040800F2
:100000000000022041640008B10F0008B30F00088F
:10001000B50F0008B70F0008B90F00080000000076
:100020000000000000000000000000000145000882
:10003000BB0F000800000000A145000805460008AD
:1000400091640008916400089164000891640008BC
:1000500091640008916400089164000891640008AC
:10006000916400089164000891640008916400089C
:10007000916400089164000891640008916400088C
:100080009164000891640008BD0F000891640008A5
:10009000916400089164000891640008916400086C
:1000A000916400089164000891640008916400085C
:1000B000CD0F0008DD0F000891640008916400086E
:1000C000916400089164000891640008916400083C
:1000D0009164000891640008ED0F0008FD0F00080E
:1000E000916400089164000891640008916400081C
:1000F000916400089164000891640008916400080C
:1001000091640008916400089164000891640008FB
:1001100091640008916400080D1000081D1000088B
:1001200091640008916400089164000891640008DB
:1001300091640008916400089164000891640008CB
:1001400091640008916400089164000891640008BB
:1001500091640008916400089164000891640008AB
:10016000916400089164000891640008916400089B
:100170009164000891640008916400080000000088
:0801800091640008916400087D
:10019000034613F8012B002AFBD1181A01387047C7
:1001A00081F0004102E000BF83F0004330B54FEA28
:1001B00041044FEA430594EA050F08BF90EA020F95
:1001C0001FBF54EA000C55EA020C7FEA645C7FEA28
:1001D000655C00F0E2804FEA5454D4EB5555B8BF4B
:1001E0006D420CDD2C4480EA020281EA030382EABC
:1001F000000083EA010180EA020281EA0303362D4E
:1002000088BF30BD11F0004F4FEA01314FF4801C20
:100210004CEA113102D0404261EB410113F0004F32
:100220004FEA03334CEA133302D0524263EB4303E9
:1002300094EA050F00F0A780A4F10104D5F1200E87
:100240000DDB02FA0EFC22FA05F2801841F10001E2
:1002500003FA0EF2801843FA05F359410EE0A5F1B6
:1002600020050EF1200E012A03FA0EFC28BF4CF0E7
:10027000020C43FA05F3C01851EBE37101F000459D
:1002800007D54FF0000EDCF1000C7EEB00006EEBAA
:100290000101B1F5801F1BD3B1F5001F0CD3490834
:1002A0005FEA30004FEA3C0C04F101044FEA44528B
:1002B00012F5800F80F09A80BCF1004F08BF5FEA12
:1002C000500C50F1000041EB045141EA050130BDF2
:1002D0005FEA4C0C404141EB0101013C28BFB1F504
:1002E000801FE9D291F0000F04BF01460020B1FA4F
:1002F00081F308BF2033A3F10B03B3F120020CDA22
:100300000C3208DD02F1140CC2F10C0201FA0CF0FF
:1003100021FA02F10CE002F11402D8BFC2F1200C64
:1003200001FA02F120FA0CFCDCBF41EA0C0190401A
:10033000E41AA2BF01EB0451294330BD6FEA040463
:100340001F3C1CDA0C340EDC04F11404C4F120024E
:1003500020FA04F001FA02F340EA030021FA04F360
:1003600045EA030130BDC4F10C04C4F1200220FAB7
:1003700002F001FA04F340EA0300294630BD21FAF5
:1003800004F0294630BD94F0000F83F4801306BFBB
:1003900081F480110134013D4EE77FEA645C18BFAF
:1003A0007FEA655C29D094EA050F08BF90EA020F46
:1003B00005D054EA000C04BF1946104630BD91EA3E
:1003C000030F1EBF0021002030BD5FEA545C05D141
:1003D0004000494128BF41F0004130BD14F5800480
:1003E0003CBF01F5801130BD01F0004545F0FE41F4
:1003F00041F470014FF0000030BD7FEA645C1ABF29
:10040000194610467FEA655C1CBF0B46024650EA5F
:10041000013406BF52EA033591EA030F41F400218B
:1004200030BD00BF90F0000F04BF0021704730B511
:100430004FF4806404F132044FF000054FF00001E6
:1004400050E700BF90F0000F04BF0021704730B5A7
:100450004FF4806404F1320410F0004548BF40427C
:100460004FF000013EE700BF42004FEAE2014FEAD1
:1004700031014FEA02701FBF12F07F4393F07F4FAC
:1004800081F06051704732F07F4208BF704793F0AF
:100490007F4F04BF41F40021704730B54FF46074C2
:1004A00001F0004521F000411CE700BF50EA0102C5
:1004B00008BF704730B54FF000050AE050EA01026E
:1004C00008BF704730B511F0004502D5404261EBDE
:1004D00041014FF4806404F132045FEA915C3FF41F
:1004E000D8AE4FF003025FEADC0C18BF03325FEABC
:1004F000DC0C18BF033202EBDC02C2F1200300FA6D
:1005000003FC20FA02F001FA03FE40EA0E0021FA91
:1005100002F11444BDE600BF70B54FF0FF0C4CF47F
:10052000E06C1CEA11541DBF1CEA135594EA0C0F31
:1005300095EA0C0F00F0DEF82C4481EA030621EA6C
:100540004C5123EA4C5350EA013518BF52EA0335A7
:1005500041F4801143F4801338D0A0FB02CE4FF059
:100560000005E1FB02E506F00042E0FB03E54FF089
:100570000006E1FB03569CF0000F18BF4EF0010E81
:10058000A4F1FF04B6F5007F64F5407404D25FEA7D
:100590004E0E6D4146EB060642EAC62141EA555130
:1005A0004FEAC52040EA5E504FEACE2EB4F1FD0C72
:1005B00088BFBCF5E06F1ED8BEF1004F08BF5FEAF0
:1005C000500E50F1000041EB045170BD06F00046A2
:1005D00046EA010140EA020081EA0301B4EB5C044F
:1005E000C2BFD4EB0C0541EA045170BD41F4801147
:1005F0004FF0000E013C00F3AB8014F1360FDEBF6C
:10060000002001F0004170BDC4F10004203C35DA47
:100610000C341BDC04F11404C4F1200500FA05F3CA
:1006200020FA04F001FA05F240EA020001F000426B
:1006300021F0004110EBD37021FA04F642EB0601E1
:100640005EEA430E08BF20EAD37070BDC4F10C040B
:10065000C4F1200500FA04F320FA05F001FA04F2CF
:1006600040EA020001F0004110EBD37041F10001BB
:100670005EEA430E08BF20EAD37070BDC4F12005C6
:1006800000FA05F24EEA020E20FA04F301FA05F22E
:1006900043EA020321FA04F001F0004121FA04F2D6
:1006A00020EA020000EBD3705EEA430E08BF20EAA6
:1006B000D37070BD94F0000F0FD101F000464000E0
:1006C00041EB010111F4801F08BF013CF7D041EA62
:1006D000060195F0000F18BF704703F00046520066
:1006E00043EB030313F4801F08BF013DF7D043EA37
:1006F0000603704794EA0C0F0CEA135518BF95EAED
:100700000C0F0CD050EA410618BF52EA4306D1D173
:1007100081EA030101F000414FF0000070BD50EA92
:10072000410606BF1046194652EA430619D094EA1C
:100730000C0F02D150EA013613D195EA0C0F05D106
:1007400052EA03361CBF104619460AD181EA03015A
:1007500001F0004141F0FE4141F470014FF0000012
:1007600070BD41F0FE4141F4780170BD70B54FF0AD
:10077000FF0C4CF4E06C1CEA11541DBF1CEA13552D
:1007800094EA0C0F95EA0C0F00F0A7F8A4EB05040F
:1007900081EA030E52EA03354FEA013100F0888006
:1007A0004FEA03334FF0805545EA131343EA1263CF
:1007B0004FEA022245EA111545EA10654FEA002684
:1007C0000EF000419D4208BF964244F1FD0404F53D
:1007D000407402D25B084FEA3202B61A65EB030599
:1007E0005B084FEA32024FF480104FF4002CB6EB56
:1007F000020E75EB030E22BFB61A754640EA0C00D6
:100800005B084FEA3202B6EB020E75EB030E22BF15
:10081000B61A754640EA5C005B084FEA3202B6EB56
:10082000020E75EB030E22BFB61A754640EA9C0015
:100830005B084FEA3202B6EB020E75EB030E22BFE5
:10084000B61A754640EADC0055EA060E18D04FEAA3
:10085000051545EA16754FEA06164FEAC30343EA43
:1008600052734FEAC2025FEA1C1CC0D111F4801F10
:100870000BD141EA00014FF000004FF0004CB6E709
:1008800011F4801F04BF01430020B4F1FD0C88BFA8
:10089000BCF5E06F3FF6AFAEB5EB030C04BFB6EBB3
:1008A000020C5FEA500C50F1000041EB045170BDA6
:1008B0000EF0004E4EEA113114EB5C04C2BFD4EBD3
:1008C0000C0541EA045170BD41F480114FF0000E57
:1008D000013C90E645EA060E8DE60CEA135594EAD3
:1008E0000C0F08BF95EA0C0F3FF43BAF94EA0C0FD6
:1008F0000AD150EA01347FF434AF95EA0C0F7FF44B
:1009000025AF104619462CE795EA0C0F06D152EA9E
:1009100003353FF4FDAE1046194622E750EA410682
:1009200018BF52EA43067FF4C5AE50EA41047FF493
:100930000DAF52EA43057FF4EBAE12E74FF0FF3CF8
:1009400006E000BF4FF0010C02E000BF4FF0010CC9
:100950004DF804CD4FEA410C7FEA6C5C4FEA430C42
:1009600018BF7FEA6C5C1BD001B050EA410C0CBF91
:1009700052EA430C91EA030F02BF90EA020F0020F3
:10098000704710F1000F91EA030F58BF994208BF5A
:1009900090422CBFD8176FEAE37040F00100704717
:1009A0004FEA410C7FEA6C5C02D150EA013C07D16E
:1009B0004FEA430C7FEA6C5CD6D152EA033CD3D0B9
:1009C0005DF8040B704700BF8446104662468C46B3
:1009D0001946634600E000BF01B5FFF7B7FF0028E6
:1009E00048BF10F1000F01BD4DF808EDFFF7F4FF0F
:1009F0000CBF012000205DF808FB00BF4DF808ED9A
:100A0000FFF7EAFF34BF012000205DF808FB00BFBC
:100A10004DF808EDFFF7E0FF94BF012000205DF8DE
:100A200008FB00BF4DF808EDFFF7CEFF94BF012093
:100A300000205DF808FB00BF4DF808EDFFF7C4FF8C
:100A400034BF012000205DF808FB00BF4FEA4102DF
:100A500012F5001215D211D56FF47873B3EB625210
:100A600012D94FEAC12343F0004343EA505311F037
:100A7000004F23FA02F018BF404270474FF00000C9
:100A8000704750EA013005D111F0004008BF6FF007
:100A9000004070474FF00000704700BF4A0011D27D
:100AA00012F5001211D20DD56FF47873B3EB6252C8
:100AB0000ED44FEAC12343F0004343EA505323FAD4
:100AC00002F070474FF00000704750EA013002D149
:100AD0004FF0FF3070474FF00000704753B94AB9EC
:100AE000002908BF00281CBF4FF0FF314FF0FF3036
:100AF00000F00CB8ADF1080C6DE904CE05F0CCFEA9
:100B0000DDF804E0DDE9022304B07047704700BF60
:100B10000348044B834202D0034B03B1184770478C
:100B20003800002038000020000000000548064B77
:100B30001B1AD90F01EBA301491002D0034B03B1DB
:100B400018477047380000203800002000000000DF
:100B500010B5064C237843B9FFF7DAFF044B13B105
:100B60000448AFF300800123237010BD380000203B
:100B700000000000906B000808B5054B1BB105494B
:100B80000548AFF30080BDE80840FFF7CFBF00BFC6
:100B9000000000003C000020906B000870B58AB097
:100BA00005AD0024059406940794089409940194D3
:100BB0001D4B1A6B42F080021A631A6B02F080021E
:100BC0000192019A02941A6B42F001021A631A6BA5
:100BD00002F001020292029A03941A6B42F002029E
:100BE0001A631A6B02F002020392039A04941A6BBE
:100BF00042F008021A631B6B03F008030493049B82
:100C00000A4E22464FF47041304600F0B3FF4FF4D5
:100C100070430593012306930794089429463046B0
:100C200000F0B2FE0AB070BD00380240000C024075
:100C300072B6FEE710B58CB003AC2422002120462A
:100C400005F027FC00230193029313484FF08042E4
:100C50000260436083604FF0FF32C2600361802313
:100C600083610323039302220492012305930892D4
:100C70000993214601F02EFA48B90023019302930B
:100C800001A9054801F008FB18B90CB010BDFFF729
:100C9000CFFFFFF7CDFF00BF7404002008B50A485E
:100CA0000A4B03604FF4E133436000238360C36069
:100CB00003610C2242618361C36101F01BFC00B936
:100CC00008BDFFF7B5FF00BF5403002000440040FB
:100CD00008B50948094B0360094B43600023836052
:100CE000C36003610C2242618361C36101F002FCB5
:100CF00000B908BDFFF79CFF0C030020004800402E
:100D000000CA080000B583B00023009301930F4888
:100D10000F4A026040F247324260836040F2E7339C
:100D2000C3608023836101F0A9F950B900230093C7
:100D300001936946054801F0AFFA20B903B05DF8A8
:100D400004FBFFF775FFFFF773FF00BFE40300200C
:100D50000010004000B583B00023009301930E48BB
:100D60000E4A026053224260836040F2E733C36060
:100D70008023836101F082F950B90023009301932D
:100D80006946054801F088FA20B903B05DF804FB14
:100D9000FFF74EFFFFF74CFF9C03002000140040BC
:100DA00010B58CB003AC24220021204605F071FB65
:100DB0000023019302931248124A02604360836049
:100DC0004FF6FF72C2600361836103230393022223
:100DD00004920123059308920993214601F07AF9C0
:100DE00048B900230193029301A9054801F054FA80
:100DF00018B90CB010BDFFF71BFFFFF719FF00BFBC
:100E00002C0400200004004000B585B000230093AE
:100E10000193029303931448144A02604FF4803202
:100E20004260836003610122027680F82030C36251
:100E30000F498162C360C26180F83030426101F0C5
:100E400015FE68B90523009301230193072302933C
:100E50006946054801F0DAFE20B905B05DF804FBEB
:100E6000FFF7E6FEFFF7E4FEBC040020002001408F
:100E70000100000F10B594B008AC302200212046CC
:100E800005F007FB00230393049305930693079350
:100E900001931F4A116C41F080511164126C02F0F1
:100EA00080520192019A02931A4A116841F48041DA
:100EB0001160126802F480420292029A02220892A1
:100EC00001210B9110210C910E920F930823109386
:100ED000A8231193129204231393204600F014FACE
:100EE00090B90F23039302230493002305934FF437
:100EF000A05306934FF480530793052103A800F0F5
:100F00006DFC18B914B010BDFFF792FEFFF790FE0C
:100F1000003802400070004008B500F02FFFFFF7D6
:100F2000A9FFFFF73BFEFFF785FEFFF7B7FEFFF7D0
:100F3000CFFEFFF7E7FEFFF70DFFFFF731FFFFF7EB
:100F400063FF154B1B68154C20469847D4F8BC50DE
:100F500040F2DC530F2201212046A847104B1B68AA
:100F6000104C20469847D4F8BC5040F6B8331422B1
:100F700002212046A8470C4B1B680C4C2046984782
:100F8000D4F8BC5040F2DC530F2203212046A8477E
:100F900002F02AFDFEE700BFA06C00082802002036
:100FA000A86C000840010020AC6C00085400002030
:100FB000FEE7FEE7FEE7FEE7FEE7704708B50248FA
:100FC00001F082FD08BD00BFBC04002008B5024846
:100FD00000F039FF08BD00BF7404002008B50248C6
:100FE00000F031FF08BD00BF2C04002008B5024806
:100FF00001F056FB08BD00BF5403002008B50248AD
:1010000001F04EFB08BD00BF0C03002008B50248EC
:1010100000F019FF08BD00BFE403002008B5024836
:1010200000F011FF08BD00BF9C03002082B000212A
:1010300000910B4B5A6C42F480425A645A6C02F491
:1010400080420092009A01911A6C42F080521A6418
:101050001B6C03F080530193019B02B0704700BFEB
:101060000038024010B588B0002303930493059321
:1010700006930793026803F1804303F590339A4285
:1010800001D008B010BD0024019403F58C335A6CD4
:1010900042F480725A645A6C02F480720192019A8E
:1010A00002941A6B42F001021A631B6B03F00103F6
:1010B0000293029B202303930323049303A906486E
:1010C00000F062FC22460821122000F009FE1220E6
:1010D00000F016FED5E700BF0000024010B58AB050
:1010E0000023059306930793089309930368B3F1CC
:1010F000804F04D02B4A93422BD00AB010BD00245D
:10110000019403F50E331A6C42F001021A641A6C52
:1011100002F001020192019A02941A6B42F001025C
:101120001A631B6B03F001030293029B03230593D5
:10113000022306930123099305A91B4800F024FC10
:10114000224606211C2000F0CBFD1C2000F0D8FD1B
:10115000D3E700240394154B1A6C42F002021A6480
:101160001A6C02F002020392039A04941A6B42F082
:1011700001021A631B6B03F001030493049BC02359
:10118000059302230693099305A9074800F0FCFB89
:10119000224607211D2000F0A3FD1D2000F0B0FD18
:1011A000ABE700BF000400400000024000380240EE
:1011B00000B583B00368184A934205D0174A93429A
:1011C00016D003B05DF804FB00220092144B196C9A
:1011D00041F0100119641B6C03F010030093009B95
:1011E0000921362000F07CFD362000F089FDE8E77B
:1011F000002201920A4B196C41F0200119641B6C0A
:1012000003F020030193019B0A21372000F068FDC1
:10121000372000F075FDD4E70010004000140040B6
:101220000038024010B58AB0002305930693079357
:101230000893099303682F4A934204D02E4A93429D
:101240002CD00AB010BD002401942C4B1A6C42F42F
:1012500000321A641A6C02F400320192019A02946C
:101260001A6B42F001021A631B6B03F00103029335
:10127000029B0C2305930223069303230893072361
:10128000099305A91E4800F07FFB22460B2126206A
:1012900000F026FD262000F033FDD2E70024039461
:1012A000164B1A6C42F480221A641A6C02F48022E3
:1012B0000392039A04941A6B42F002021A631B6BA6
:1012C00003F002030493049B4FF44063059302234D
:1012D0000693032308930723099305A9094800F0FF
:1012E00053FB22460C21272000F0FAFC272000F0B7
:1012F00007FDA6E7004400400048004000380240D7
:101300000000024000040240002800F0E08170B5B7
:1013100082B00446036813F0010F3BD09F4B9B68DB
:1013200003F00C03042B2CD09C4B9B6803F00C03A4
:10133000082B21D06368B3F5803F4FD0B3F5A02FC1
:1013400052D0964B1A6822F480321A601A6822F43E
:1013500080221A606368002B50D000F029FD0546FA
:101360008E4B1B6813F4003F14D100F021FD401B8D
:101370006428F5D90320B1E1884B5B6813F4800F32
:10138000D8D0864B1B6813F4003F03D06368002B52
:1013900000F09F81236813F0020F54D07F4B9B68AD
:1013A00013F00C0F3ED07D4B9B6803F00C03082B11
:1013B00033D0E368002B68D0794B01221A6000F02B
:1013C000F7FC0546754B1B6813F0020F54D100F073
:1013D000EFFC401B0228F5D903207FE16F4A136818
:1013E00043F480331360B5E76C4B1A6842F48022F3
:1013F0001A601A6842F480321A60ABE700F0D8FC39
:101400000546664B1B6813F4003FC3D000F0D0FCC8
:10141000401B6428F5D9032060E1604B5B6813F43E
:10142000800FC6D15D4B1B6813F0020F03D0E36839
:10143000012B40F05081594A136823F0F8032169C9
:1014400043EAC1031360236813F0080F42D06369B5
:101450006BB3534B0122C3F8802E00F0A9FC054664
:101460004E4B5B6F13F0020F34D100F0A1FC401B18
:101470000228F5D9032031E1484A136823F0F80324
:10148000216943EAC1031360DDE7454B00221A607E
:1014900000F08EFC0546414B1B6813F0020FD2D0C2
:1014A00000F086FC401B0228F5D9032016E13C4BD6
:1014B0000022C3F8802E00F07BFC0546374B5B6FA3
:1014C00013F0020F06D000F073FC401B0228F5D980
:1014D000032003E1236813F0040F77D02F4B1B6C1C
:1014E00013F0805F33D1002301932C4B1A6C42F030
:1014F00080521A641B6C03F080530193019B0125F9
:10150000284B1B6813F4807F23D0A368012B34D0B1
:10151000052B38D0214B1A6F22F001021A671A6F7F
:1015200022F004021A67A368002B3DD000F040FCB3
:1015300006461A4B1B6F13F0020F46D100F038FC21
:10154000801B41F288339842F3D90320C6E000257E
:10155000D6E7144A136843F48073136000F028FC44
:101560000646104B1B6813F4807FCED100F020FCA0
:10157000801B0228F5D90320B0E0084A136F43F01E
:1015800001031367CFE7054B1A6F42F004021A6795
:101590001A6F42F001021A67C5E700BF0038024027
:1015A000000047420070004000F002FC0646524B2B
:1015B0001B6F13F0020F08D000F0FAFB801B41F202
:1015C00088339842F3D9032088E0EDB9A369002B52
:1015D00000F08380484A926802F00C02082A51D039
:1015E000022B17D0454B00221A6600F0E1FB04469F
:1015F000414B1B6813F0007F42D000F0D9FB001B69
:101600000228F5D9032069E03B4A136C23F080538C
:101610001364DBE7394B00221A6600F0C9FB05466C
:10162000354B1B6813F0007F06D000F0C1FB401B58
:101630000228F5D9032051E0E369226A1343626A64
:1016400043EA8213A26A5208013A43EA0243E26A79
:1016500043EA0263284A5360284B01221A6600F0CD
:10166000A7FB0446244B1B6813F0007F06D100F053
:101670009FFB001B0228F5D903202FE000202DE05E
:1016800000202BE0012B2BD01B4B5B6803F4800167
:10169000E269914226D103F03F02216A8A4223D1B6
:1016A000616A47F6C0721A40B2EB811F1ED103F483
:1016B0004031A26A5208013AB1EB024F18D103F04F
:1016C0007063E26AB3EB026F14D1002006E00120E0
:1016D0007047012002E0012000E0002002B070BD50
:1016E0000120FBE70120F9E70120F7E70120F5E7FA
:1016F0000120F3E70120F1E70038024000004742F3
:1017000008B5334B9B6803F00C03042B5BD0082B0C
:101710005BD12F4B5A6802F03F025B6813F4800FD5
:101720002CD02B4B5868C0F388104FEA401CBCEB00
:10173000000C6EEB0E0E4FEA8E1343EA9C634FEAE9
:101740008C11B1EB0C0163EB0E03DB0043EA517328
:10175000C90011EB000C43F10003590200234FEACA
:101760004C2041EADC51FFF7B9F9194B5B68C3F330
:10177000014301335B00B0FBF3F008BD144B586824
:10178000C0F388104FEA401CBCEB000C6EEB0E0E51
:101790004FEA8E1343EA9C634FEA8C11B1EB0C01C4
:1017A00063EB0E03DB0043EA5173C90011EB000C3D
:1017B00043F10003990200234FEA8C2041EA9C5137
:1017C000FFF78CF9D1E70348D7E70348D5E700BF17
:1017D0000038024000127A000024F400002800F0D3
:1017E0009B8070B50D4604464F4B1B6803F0070302
:1017F0008B4208D2CBB24C4A1370136803F0070334
:101800008B4240F08B80236813F0020F17D013F047
:10181000040F04D0454A936843F4E053936023686F
:1018200013F0080F04D0414A936843F46043936077
:101830003E4A936823F0F003A1680B43936023684A
:1018400013F0010F32D06368012B21D09A1E012AB8
:1018500025D9364A126812F0020F61D033498A68DE
:1018600022F0030213438B6000F0A2FA06462F4BCE
:101870009B6803F00C036268B3EB820F16D000F094
:1018800097FA801B41F288339842F0D9032042E056
:10189000264A126812F4003FE0D101203BE0234ABF
:1018A000126812F0007FD9D1012034E01E4B1B6872
:1018B00003F00703AB4207D9EAB21B4B1A701B684F
:1018C00003F00703AB422DD1236813F0040F06D0B9
:1018D000164A936823F4E053E1680B43936023684E
:1018E00013F0080F07D0114A936823F4604321696D
:1018F00043EAC1039360FFF703FF0C4B9B68C3F3FC
:1019000003130B4AD35CD8400A4B18600A4B186883
:1019100000F00EFA002070BD012070470120FAE7A8
:101920000120F8E70120F6E7003C024000380240C1
:10193000B06B00080800002004000020014B18686C
:10194000704700BF0800002008B5FFF7F7FF044B01
:101950009B68C3F38223034AD35CD84008BD00BF11
:1019600000380240A86B000808B5FFF7E7FF044BFA
:101970009B68C3F34233034AD35CD84008BD00BF21
:1019800000380240A86B000800230F2B00F2E9800A
:1019900070B582B065E085684FEA430E032404FA0F
:1019A0000EF425EA0405CC6804FA0EF42C43846096
:1019B000446824EA02044A68C2F300129A402243AF
:1019C00042605CE0DC08083450F8242003F007058E
:1019D000AD004FF00F0E0EFA05FE22EA0E0E0A6958
:1019E000AA4042EA0E0240F824205CE0072200E010
:1019F000002202FA0EF22A4302345A4D45F82420FE
:101A0000594A94686FEA0C0224EA0C054E6816F4F1
:101A1000801F01D04CEA0405534CA560E46802EA3B
:101A200004054E6816F4001F01D04CEA04054E4C24
:101A3000E560646802EA04054E6816F4003F01D0D0
:101A40004CEA0405484C6560246822404D6815F452
:101A5000803F01D04CEA0402434C226001330F2B3B
:101A60007DD801229A400C6804EA020C32EA040490
:101A7000F4D14C6804F00304013C012C8BD94A6872
:101A800002F00302032A09D0C4685D000322AA40C1
:101A900024EA02048A68AA402243C2604A6802F02B
:101AA0000302022A8ED004684FEA430E032202FA90
:101AB0000EF224EA02044A6802F0030202FA0EF26D
:101AC000224302604A6812F4403FC7D000220192CC
:101AD000264A546C44F480445464526C02F48042AC
:101AE0000192019A9C08A51C1E4A52F8255003F049
:101AF000030E4FEA8E0E0F2202FA0EF225EA0205BD
:101B00001B4A90423FF474AF02F5806290421AD0B3
:101B100002F58062904218D002F58062904216D0A1
:101B200002F58062904214D002F58062904212D099
:101B300002F58062904210D002F5806290423FF43C
:101B400055AF082255E7012253E7022251E703224D
:101B50004FE704224DE705224BE7062249E702B092
:101B600070BD704700380140003C01400038024021
:101B7000000002400AB18161704709048161704729
:101B800070B50446866D00F013F994F83530022BD9
:101B900006D080236365002384F83430012070BDB3
:101BA00005462268136823F0160313602268536900
:101BB00023F080035361236CE3B12268136823F0A0
:101BC000080313602268136823F00103136023687D
:101BD0001B6813F0010F11D000F0EAF8431B052B2E
:101BE000F5D920236365032084F83500002384F8A9
:101BF0003430D4E7A36C002BDFD1E3E7E26D3F2361
:101C00009340B360012384F83530002084F8340019
:101C1000C5E790F83530022B03D0802343650120BF
:101C20007047052380F835300268136823F00103FC
:101C30001360002070470000002807DB00F01F023F
:101C4000400901239340024A42F82030704700BF08
:101C500000E100E0002808DB0901C9B200F16040A2
:101C600000F5614080F80013704700F00F00090193
:101C7000C9B2014B1954704714ED00E000B500F0F3
:101C80000700C0F1070CBCF1040F28BF4FF0040C93
:101C9000031D062B0FD9C31E4FF0FF3E0EFA0CF0AA
:101CA00021EA000199400EFA03FE22EA0E0241EAFF
:101CB00002005DF804FB0023EEE70000074AD3684A
:101CC00023F4E0631B041B0C000200F4E0600343F8
:101CD00043F0BF6343F40033D360704700ED00E08E
:101CE00010B50446054BD868C0F30220FFF7C6FFC5
:101CF00001462046FFF7AEFF10BD00BF00ED00E03B
:101D000008B5FFF799FF08BD0138B0F1807F0BD20D
:101D10004FF0E0235861054AF02182F8231000209B
:101D2000986107221A6170470120704700ED00E0BA
:101D300010B504460E4B1A784FF47A73B3FBF2F3E6
:101D40000C4A1068B0FBF3F0FFF7DEFF68B90F2C08
:101D500001D901200AE0002221464FF0FF30FFF7B1
:101D6000BFFF054B1C60002000E0012010BD00BF3C
:101D700000000020080000200400002008B50B4BE4
:101D80001A6842F400721A601A6842F480621A609B
:101D90001A6842F480721A600320FFF78FFF0F2049
:101DA000FFF7C6FFFFF742F9002008BD003C0240E4
:101DB000014B1868704700BF0405002090F83D30C3
:101DC000012B37D1022380F83D300268D36843F0FD
:101DD0000103D3600368194A934220D0B3F1804FC6
:101DE0001DD0A2F57C42934219D002F58062934245
:101DF00015D002F58062934211D002F578429342E9
:101E00000DD002F57052934209D0A2F5943293425C
:101E100005D01A6842F001021A60002070479A68E3
:101E200002F00702062A07D01A6842F001021A607F
:101E300000207047012070470020704700000140DB
:101E400070477047704770B504460368DE681D69C7
:101E500015F0020F10D016F0020F0DD06FF0020235
:101E60001A610123037703689B6913F0030F5ED0A7
:101E700003F090FE0023237715F0040F12D016F024
:101E8000040F0FD023686FF004021A610223237736
:101E900023689B6913F4407F4FD0204603F07AFEFD
:101EA0000023237715F0080F12D016F0080F0FD07B
:101EB00023686FF008021A61042323772368DB6923
:101EC00013F0030F40D0204603F064FE0023237775
:101ED00015F0100F12D016F0100F0FD023686FF00E
:101EE00010021A61082323772368DB6913F4407F0B
:101EF00031D0204603F04EFE0023237715F0010F6A
:101F000002D016F0010F2DD115F0800F02D016F07F
:101F1000800F2FD115F0400F02D016F0400F31D1B5
:101F200015F0200F02D016F0200F33D170BDFFF74F
:101F300087FF2046FFF785FF9CE72046FFF780FFDD
:101F40002046FFF77EFFABE72046FFF779FF2046EC
:101F5000FFF777FFBAE72046FFF772FF2046FFF74B
:101F600070FFC9E723686FF001021A61204603F091
:101F700035FEC9E723686FF080021A61204600F041
:101F8000D2F9C7E723686FF040021A612046FFF7D5
:101F900059FFC5E723686FF020021A61204600F060
:101FA000C1F9C3E70368344A904212D0B0F1804FC0
:101FB0000FD0A2F57C4290420BD002F58062904295
:101FC00007D002F58062904203D002F57842904239
:101FD00003D123F070034A681343274A90422AD062
:101FE000B0F1804F27D0A2F57C42904223D002F579
:101FF000806290421FD002F5806290421BD002F5B1
:102000007842904217D002F57052904213D002F5F8
:10201000806290420FD002F5806290420BD0A2F510
:102020009832904207D002F58062904203D002F5C8
:102030008062904203D123F44073CA68134323F0B3
:1020400080034A69134303608B68C3620B68836231
:10205000094B984203D003F58063984201D10B6984
:10206000036301234361036913F0010F03D0036984
:1020700023F00103036170470000014040B310B535
:10208000044690F83D30F3B1022384F83D302146F8
:1020900051F8040BFFF786FF012384F8463084F8DB
:1020A0003E3084F83F3084F8403084F8413084F882
:1020B000423084F8433084F8443084F8453084F862
:1020C0003D30002010BD80F83C30FFF771F8DBE7B1
:1020D00001207047002853D0F8B50D46044690F80B
:1020E0003D30002B47D0022384F83D3022689368AE
:1020F00023F4804323F007039360214651F8040B37
:10210000FFF750FF21688B688A690E6A28681843B8
:1021100022F4407222F00302AB68AF6943EA07235E
:10212000134323F47C4323F0FC03EA68EF6942EA9B
:1021300007221A432B6A1B032F6943EA0713134331
:1021400026F0AA066A686D6942EA05123243886081
:1021500021688B6123681A62012384F8463084F871
:102160003E3084F83F3084F8423084F8433084F8BD
:102170003D300020F8BD80F83C30FEF7AFFFB2E7FD
:102180000120704701F01F014FF0010C0CFA01FC17
:10219000036A23EA0C030362036A8A40134303625F
:1021A000704738B5044690F83E00C0B294F83F300E
:1021B00094F84220D2B294F843C00D4609BB0128DE
:1021C0005ED1012A5DD1022384F83E3084F842308A
:1021D000002D39D0042D48D0012200212068FFF7BE
:1021E000D1FF012204212068FFF7CCFF2268D368C9
:1021F00043F00203D3602268D36843F00403D36042
:102200002CE0DBB25FFA8CFC042912D001283DD10E
:10221000012B36D1012A3BD1BCF1010F3AD1022367
:1022200084F83E3084F83F3084F8423084F84330FC
:10223000CEE7012B26D1BCF1010F25D1022384F872
:102240003F3084F84330C3E7012200212068FFF7C4
:1022500099FF2268D36843F00203D36022681368B1
:1022600043F00103136000200BE0012204212068E9
:10227000FFF788FF2268D36843F00403D360EDE7DB
:10228000012038BD0120FCE71846FAE70120F8E7F5
:102290001846F6E71046F4E790F83C20012A3DD0B6
:1022A00010B40346012280F83C20022280F83D2031
:1022B00002685068946820F0700C086840EA0C00CE
:1022C00050601A68164882421AD0B2F1804F17D077
:1022D000A0F57C40824213D000F5806082420FD08E
:1022E00000F5806082420BD000F57840824207D032
:1022F00000F57050824203D0A0F59430824204D1A0
:1023000024F08004496821439160012283F83D2034
:10231000002083F83C005DF8044B704702207047B2
:102320000000014070477047026802F10C0353E857
:10233000003F23F490730C3242E800310029F3D1BE
:10234000026802F1140353E8003F23F00103143242
:1023500042E800310029F3D1036B012B05D0202383
:1023600080F84230002303637047026802F10C03D7
:1023700053E8003F23F010030C3242E800310029FB
:10238000F3D1ECE790F84130212B01D002207047C7
:102390008368B3F5805F17D0036A5A1C02621A780B
:1023A00003685A60C38C9BB2013B9BB2C3844BB998
:1023B0000268D36823F08003D3600268D36843F0D7
:1023C0004003D360002070470369002BE4D1036A07
:1023D0001B880268C3F308035360036A0233036275
:1023E000E0E7000010B504460268136923F4405387
:1023F000C1680B431361836802691A4343691A4336
:10240000C3691A430168CB6823F4164323F00C0315
:102410001343CB600268536923F4407381690B4313
:1024200053610368314A934206D002F580629342B9
:1024300002D0FFF789FA01E0FFF796FAE369B3F5F6
:10244000004F29D00021031849411B1841F1000118
:10245000C90041EA5371DB00181863684FEA830230
:102460004FEA937341F10001FEF738FB204AA2FBCB
:1024700000314909642303FB11031B013233A2FB22
:1024800003235B0903F0F00202EB011203F00F03D8
:10249000216813448B6010BD0023021843EB030135
:1024A000121841F10001C90041EA5271D20010181E
:1024B00041F10001626892185B41FEF70FFB0C4A84
:1024C000A2FB00314909642303FB1103DB00323313
:1024D000A2FB03235B095A0002F4F87202EB01121B
:1024E00003F00703216813448B60D4E70010014018
:1024F0001F85EB5160B310B5044690F8413013B31B
:10250000242384F841302268D36823F40053D36035
:102510002046FFF767FF2268136923F49043136195
:102520002268536923F02A0353612268D36843F475
:102530000053D36000206064202384F8413084F885
:102540004230606310BD80F84030FEF76BFED7E785
:102550000120704790F84130202B10D189B192B101
:1025600001628284C28400234364212280F84120D6
:102570000168CA6842F08002CA60184670470220AB
:102580007047012070470120704708B50168CA688C
:1025900022F04002CA60202280F8412003F056FB5E
:1025A000002008BD7047704708B5806B0023C385C5
:1025B000C384FFF7F8FF08BD704790F84230222B24
:1025C00069D18368B3F5805F4FD0826AB3F5805FCD
:1025D00004D0002B56D10369002B53D103685B68EC
:1025E0001370836A01338362C38D9BB2013B9BB23C
:1025F000C385002B51D100B583B00268D36823F0A6
:102600002003D3600268D36823F48073D360026828
:10261000536923F001035361202380F842300023E3
:102620004363036B012B33D100230363026802F180
:102630000C0353E8003F23F010030C3242E8003152
:102640000029F3D103681A6812F0100F06D0002297
:1026500001921A6801925B680193019B818DFFF7DB
:10266000ABFF002003B05DF804FB0269002AACD187
:10267000826A03685B68C3F308031380836A0233CA
:102680008362B1E703685B6803F07F031370A8E718
:10269000FFF788FFE5E70220704700207047000041
:1026A00010B582B0044602681368D068516913F00F
:1026B0000F0F09D113F0200F0CD010F0200F09D00C
:1026C0002046FFF77AFF16E011F0010115D110F452
:1026D000907F12D1216B012979D013F0800F03D0A4
:1026E00010F0800F40F0148113F0400F03D010F071
:1026F000400F40F0118102B010BD13F0010F06D061
:1027000010F4807F03D0626C42F00102626413F027
:10271000040F04D019B1626C42F00202626413F03B
:10272000020F04D019B1626C42F00402626413F02B
:10273000080F07D010F0200F00D119B1626C42F0E1
:1027400008026264626C002AD5D013F0200F02D018
:1027500010F0200F29D123685B6903F04003626CFD
:1027600012F0080F00D163B32046FFF7DDFD2368A8
:102770005B6913F0400F20D0226802F1140353E884
:10278000003F23F04003143242E800310029F3D126
:10279000E36B73B1624A1A65E06BFFF73AFA0028FF
:1027A000A9D0E06B036D9847A5E72046FFF705FF2A
:1027B000D1E72046FFF7F7FE9DE72046FFF7F3FE3F
:1027C00099E72046FFF7EFFE0023636493E713F0D9
:1027D000100F82D010F0100F3FF47FAF0023019351
:1027E0001368019353680193019B536913F0400FE1
:1027F00052D0E26B13685B689BB2002B3FF47BAF57
:10280000A18D99427FF677AFE385D369B3F5807FD9
:1028100037D0226802F10C0353E8003F23F48073A1
:102820000C3242E800310029F3D1226802F114038E
:1028300053E8003F23F00103143242E8003100293D
:10284000F3D1226802F1140353E8003F23F0400360
:10285000143242E800310029F3D1202384F84230B9
:1028600000232363226802F10C0353E8003F23F0A6
:1028700010030C3242E800310029F3D1E06BFFF77E
:102880007FF902236363A18DE38D9BB2C91A89B2DC
:102890002046FFF791FE2EE7A18DE38D9BB2C91A6A
:1028A00089B2E38D9BB2002B3FF425AF00293FF4A2
:1028B00022AF226802F10C0353E8003F23F4907327
:1028C0000C3242E800300028F3D1226802F11403F0
:1028D00053E8003F23F00103143242E8003000289F
:1028E000F3D1202384F8423000232363226802F1CD
:1028F0000C0353E8003F23F010030C3242E8003091
:102900000028F3D1022363632046FFF755FEF2E669
:102910002046FFF737FDEEE62046FFF736FEEAE6F3
:10292000A9250008034AD2F8883043F47003C2F89E
:102930008830704700ED00E04A4B5A6822F440327C
:102940005A605A6841680A435A600268536823F41F
:102950008073536002685368016943EA012353603E
:102960000268536823F040735360026853688168BB
:102970000B4353600268936823F40063936002681A
:102980009368C1680B439360826A374B9A4257D071
:102990000268936823F07063936002689368816AA9
:1029A0000B4393600268936823F04053936002687E
:1029B0009368C16A0B4393600268936823F0020333
:1029C000936002689368017E43EA4103936090F844
:1029D0002030002B3FD00268536843F400635360FB
:1029E0000268536823F46043536001684B68426A8D
:1029F000013A43EA42334B600268D36A23F470031E
:102A0000D3620168CB6AC269013A43EA0253CB62DE
:102A10000268936823F4007393600268936890F8E7
:102A2000301043EA412393600268936823F4806383
:102A3000936002689368416943EA81239360704719
:102A40000268936823F0706393600268936823F0D0
:102A500040539360B0E70268536823F40063536007
:102A6000CAE700BF002301400100000F38B310B5D2
:102A70000446036C43B1236C13F0100F0BD00120FC
:102A8000002384F83C3010BDFEF7ECFA00236364A9
:102A900084F83C30EFE7236C23F4885323F00203DF
:102AA00043F0020323642046FFF746FF00206064E2
:102AB000236C23F0030343F001032364E0E70120C8
:102AC000704770477047704770B5044603681E68CA
:102AD0005D6816F0020F2FD005F0200262B3026C81
:102AE00012F0100F03D1026C42F4007202649A6873
:102AF00012F0405F19D1227EBAB9DA6A12F4700F6F
:102B000003D09A6812F4806F0FD15A6822F0200225
:102B10005A60236C23F480732364236C13F4805F66
:102B200003D1236C43F0010323642046FFF7C9FF60
:102B300023686FF012021A6005F0800316F0040F8C
:102B400037D0002B35D0236C13F0100F03D1236C3A
:102B500043F40053236423689A6812F4401F21D180
:102B60009A6B12F4401F03D09A6812F4806F19D147
:102B70005A6812F4806F15D19A6812F0405F11D133
:102B8000227E7AB95A6822F080025A60236C23F4BC
:102B900080532364236C13F4807F03D1236C43F0B0
:102BA00001032364204600F0FBF823686FF00C0259
:102BB0001A6005F0400316F0010F05D023B1236819
:102BC0001B6813F0010F06D105F0806516F0200F89
:102BD00000D065B970BD236C43F480332364204674
:102BE000FFF770FF23686FF001021A60ECE7636C77
:102BF00043F00203636423686FF020051D602046E4
:102C0000FFF761FF23681D60E4E7000030B482B085
:102C10000022019290F83C20012A00F0B680034681
:102C2000012280F83C200A68092A40D90468E0683B
:102C300092B202EB42021E3A4FF0070C0CFA02F27B
:102C400020EA0202E2601C68E0680A8802EB4202A5
:102C50001E3A8D6805FA02F20243E2604A68062ACB
:102C60003CD81C68606B02EB8202053A4FF01F0CE7
:102C70000CFA02F220EA020262631C68606B4A6886
:102C800002EB8202053AB1F800C00CFA02F20243EC
:102C9000626318683E4A904250D018683C4A90429D
:102CA00055D0002083F83C0002B030BC7047046867
:102CB000206992B202EB42024FF0070C0CFA02F2CA
:102CC00020EA020222611C6820690A8802EB4202A3
:102CD0008D6805FA02F202432261BFE70C2A16D87A
:102CE0001D68286B02EB8202233A1F2404FA02F2C9
:102CF00020EA02022A631D68286B4A6802EB8202FE
:102D0000233A0C8804FA02F202432A63C1E71D68E1
:102D1000E86A02EB8202413A1F2404FA02F220EA36
:102D20000202EA621D68E86A4A6802EB8202413ADE
:102D30000C8804FA02F20243EA62AAE70A68122A3D
:102D4000ABD11448426842F480024260A5E70A68A9
:102D5000103A012AA5D80F48426842F400024260A6
:102D60000A68102A9DD10C4A12680C49A1FB021274
:102D7000920C02EB82025200019202E0019A013AA7
:102D80000192019A002AF9D18BE702208CE700BF5B
:102D900000200140002301400800002083DE1B4387
:102DA000704700F1080343604FF0FF328260C36058
:102DB000036100230360704700230361704730B450
:102DC0000D68B5F1FF3F11D000F108031C465B68A8
:102DD0001A68AA42FAD963684B6099608C60616096
:102DE000086103680133036030BC70470469F2E78F
:102DF0000369416882688A60416851605A6882420A
:102E000006D0002202611A68013A1A6018687047F9
:102E100082685A60F5E710B5044601F083FBA26BA7
:102E2000E36B9A4204D0002401F09EFB204610BDC3
:102E30000124F9E710B5044601F074FBA36B23B934
:102E4000012401F091FB204610BD0024F9E770B584
:102E500004461546866B026C5AB903681BB1002004
:102E60000136A66370BD806801F0EAF80023A36014
:102E7000F6E76DB9406803F039FB6368226C1344D0
:102E80006360A268934219D3236863602846E7E72A
:102E9000C06803F02BFBE368226C51429B1AE3608D
:102EA0002268934202D2A3680B44E360022D01D052
:102EB0000020D5E726B1013E0020D1E72846CFE724
:102EC0000020CDE70346026C6AB110B50846D96808
:102ED0001144D9609C68A14201D31968D960D968AE
:102EE00003F004FB10BD704738B5054601F01AFB2E
:102EF00095F8454064B201E0013C64B2002C0ADD63
:102F00006B6A43B105F1240000F0BAFF0028F3D04A
:102F100001F080F8F0E7FF2385F8453001F024FB4D
:102F200001F000FB95F8444064B201E0013C64B25A
:102F3000002C0ADD2B6943B105F1100000F0A0FF61
:102F40000028F3D001F066F8F0E7FF2385F844305D
:102F500001F00AFB38BD38B590B10D460446C36B8D
:102F60002BB1026C0021A2FB032393B999B14FF05E
:102F7000500383F31188BFF36F8FBFF34F8FFEE7CA
:102F80004FF0500383F31188BFF36F8FBFF34F8F60
:102F9000FEE70121EAE701F0C5FA2368E26B216C44
:102FA00001FB0230A0600020A0636360013A02FBD5
:102FB0000133E360FF2384F8443084F84530B5B929
:102FC00023691BB901F0D0FA012038BD04F11000CB
:102FD00000F056FF0028F5D04FF0E0234FF080526C
:102FE000C3F8042DBFF34F8FBFF36F8FEAE704F1EF
:102FF0001000FFF7D6FE04F12400FFF7D2FEE1E750
:1030000038B51D46049C0B4649B92460E06323642F
:1030100001212046FFF79FFF84F84C5038BD226005
:10302000F4E7F0B583B060B10C46174605460023BF
:10303000A4FB001272B923B904FB05F010F1510F83
:103040000AD94FF0500383F31188BFF36F8FBFF39A
:103050004F8FFEE70123EEE7503001F015FC0646E6
:1030600038B100903B4600F1500221462846FFF758
:10307000C7FF304603B0F0BDF0B585B0019288B10E
:103080000F461D460446B1B1022D20D1E36B012B42
:103090001DD04FF0500383F31188BFF36F8FBFF340
:1030A0004F8FFEE74FF0500383F31188BFF36F8F0C
:1030B000BFF34F8FFEE7036C002BE5D04FF05003BA
:1030C00083F31188BFF36F8FBFF34F8FFEE700F0DC
:1030D000A7FF064658B9019B002B48D04FF050037C
:1030E00083F31188BFF36F8FBFF34F8FFEE7002686
:1030F0003DE02A4639462046FFF7A9FE636A7BB9C0
:1031000048B14FF0E0234FF08052C3F8042DBFF3D5
:103110004F8FBFF36F8F01F027FA012005B0F0BD8C
:1031200004F1240000F0ACFE0028F4D04FF0E023BE
:103130004FF08052C3F8042DBFF34F8FBFF36F8F52
:10314000E9E701F011FA0020E8E702A800F010FF1B
:10315000012619E0002384F8443021E0002384F89C
:10316000453023E02046FFF7BFFE00F053FD01F09D
:10317000D9F9A26BE36B9A42BBD3022DB9D0019B64
:10318000002BDED0002EE0D001F0EEF900F072FC52
:1031900001F0C8F994F8442052B2B2F1FF3FD9D0FF
:1031A00094F8452052B2B2F1FF3FD7D001F0DCF9DC
:1031B00001A902A800F0E8FED8B92046FFF72BFECF
:1031C0000028CFD0019904F1100000F017FE20462E
:1031D000FFF78AFE00F01EFD0028C8D14FF0E02363
:1031E0004FF08052C3F8042DBFF34F8FBFF36F8FA2
:1031F000BDE72046FFF778FE00F00CFD00208DE7CC
:103200002DE9F84390B10F4616461C460546B1B16C
:10321000022C20D1EB6B012B1DD04FF0500383F318
:103220001188BFF36F8FBFF34F8FFEE74FF050034E
:1032300083F31188BFF36F8FBFF34F8FFEE7036CEB
:10324000002BE5D04FF0500383F31188BFF36F8F4D
:10325000BFF34F8FFEE701F08BFAEFF311884FF0C9
:10326000500383F31188BFF36F8FBFF34F8FAA6BA7
:10327000EB6B9A4206D3022C04D0002088F311880D
:10328000BDE8F88395F845904FFA89F9AB6B224673
:1032900039462846FFF7DBFDB9F1FF3F0CD16B6AD9
:1032A0000BB90120EAE705F1240000F0E9FDD0B1F7
:1032B000DEB101203060E1E700F0EAFB814516D283
:1032C000B9F17F0F06D009F101035BB285F84530F3
:1032D0000120D3E74FF0500383F31188BFF36F8FC2
:1032E000BFF34F8FFEE70120C8E70120C6E70120AA
:1032F000C4E7F0B585B0019290B10F460446C1B164
:1033000000F08EFE064600BB019B002B5ED04FF006
:10331000500383F31188BFF36F8FBFF34F8FFEE726
:103320004FF0500383F31188BFF36F8FBFF34F8FBC
:10333000FEE7036C002BE3D04FF0500383F31188BA
:10334000BFF36F8FBFF34F8FFEE700263EE0394695
:103350002046FFF7B7FD013DA563236923B901F0BE
:1033600003F9012005B0F0BD04F1100000F088FD64
:103370000028F4D04FF0E0234FF08052C3F8042D22
:10338000BFF34F8FBFF36F8FE9E701F0EDF8002037
:10339000E8E702A800F0ECFD012621E0002384F814
:1033A000443029E0002384F845302BE02046FFF725
:1033B0009BFD00F02FFC09E02046FFF795FD00F093
:1033C00029FC2046FFF736FD00283FD101F0AAF87E
:1033D000A56B002DBBD1019B002BD6D0002ED8D0E1
:1033E00001F0C2F800F046FB01F09CF894F844307C
:1033F0005BB2B3F1FF3FD1D094F845305BB2B3F18B
:10340000FF3FCFD001F0B0F801A902A800F0BCFD49
:103410000028D1D12046FFF70DFD0028C6D0019924
:1034200004F1240000F0EAFC2046FFF75DFD00F007
:10343000F1FB0028CAD14FF0E0234FF08052C3F8CF
:10344000042DBFF34F8FBFF36F8FBFE7002089E7D5
:1034500070B584B0019290B10E460446C1B100F03F
:10346000DFFD054600BB019B002B5ED04FF05003F3
:1034700083F31188BFF36F8FBFF34F8FFEE74FF0D9
:10348000500383F31188BFF36F8FBFF34F8FFEE7B5
:10349000036C002BE3D04FF0500383F31188BFF38C
:1034A0006F8FBFF34F8FFEE700253EE0E5683146A2
:1034B0002046FFF707FDE560636A23B901F054F881
:1034C000012004B070BD04F1240000F0D9FC0028F4
:1034D000F4D04FF0E0234FF08052C3F8042DBFF337
:1034E0004F8FBFF36F8FE9E701F03EF80020E8E768
:1034F00002A800F03DFD012521E0002384F84430BE
:1035000029E0002384F845302BE02046FFF7ECFC4F
:1035100000F080FB09E02046FFF7E6FC00F07AFBB4
:103520002046FFF787FC00283FD100F0FBFFA36B8C
:10353000002BBBD1019B002BD6D0002DD8D001F0A1
:1035400013F800F097FA00F0EDFF94F844305BB206
:10355000B3F1FF3FD1D094F845305BB2B3F1FF3FF8
:10356000CFD001F001F801A902A800F00DFD00285C
:10357000D1D12046FFF75EFC0028C6D0019904F1A6
:10358000240000F03BFC2046FFF7AEFC00F042FBBD
:103590000028CAD14FF0E0234FF08052C3F8042D29
:1035A000BFF34F8FBFF36F8FBFE7002089E70000A5
:1035B00028B110B4044631B3002003460DE04FF0AB
:1035C000500383F31188BFF36F8FBFF34F8FFEE774
:1035D0000E4800EBC30014E00133072B10D80B4A50
:1035E00002EBC3025268A242F2D00028F4D1074A8B
:1035F00052F83320002AEFD1044800EBC300EBE778
:1036000008B1016044605DF8044B70470805002074
:1036100070B504460D46164600F084FF94F8443019
:103620005BB2B3F1FF3F0DD094F845305BB2B3F11C
:10363000FF3F0BD000F098FFA36B5BB12046FFF774
:1036400053FC70BD002384F84430EDE7002384F878
:103650004530EFE73246294604F1240000F0E6FB4E
:10366000ECE70000074B1B681B6823B9064B4FF0C3
:10367000FF321A607047034B1B68DB681A68024B05
:103680001A607047B80500205005002010B50446A8
:10369000006B01F073F9204601F070F910BD2DE9BF
:1036A000F84380460D4616469946089F0A9C9200AC
:1036B000A521206B02F0EDFE226B06F18043013B59
:1036C00002EB830222F0070665B10022092A06D820
:1036D000AB5CA11881F834300BB10132F6E700235E
:1036E00084F83D30042F08D94FF0500383F311883C
:1036F000BFF36F8FBFF34F8FFEE7E762A764201D14
:10370000FFF75AFB04F11800FFF756FB2461C7F1DD
:103710000507A76164624A464146304600F0D8FE7C
:103720002060099B03B11C60BDE8F88338B5002414
:1037300007E004EB840293000E481844FFF731FBC6
:103740000134042CF5D90C4D2846FFF72AFB0B4C0D
:103750002046FFF726FB0A48FFF723FB0948FFF73F
:1037600020FB0948FFF71DFB084B1D60084B1C6040
:1037700038BD00BFE4050020D0050020BC050020B6
:10378000A00500208C05002074050020B80500204D
:10379000B405002010B5044600F0C4FE294A1368A1
:1037A00001331360284B1B685BB1284B1B686BB956
:1037B000254B1B68DA6AE36A9A4207D8224B1C60E1
:1037C00004E0214B1C601368012B37D0204A13689A
:1037D000013313602364E36A01229A401D4908689B
:1037E00002430A601C4A03EB830302EB83035B681A
:1037F000A3609868E060211D41609960E36A03EB73
:103800008301880002EB810161611158013111507F
:1038100000F0AAFE0D4B1B687BB10B4B1B68DA6AEC
:10382000E36A9A4209D24FF0E0234FF08052C3F886
:10383000042DBFF34F8FBFF36F8F10BDFFF776FFDF
:10384000C4E700BF70050020480600206405002082
:103850005405002068050020E40500200F4B1B687C
:10386000D3B110B500F05EFE0D4BDB68DC68201DA7
:10387000FFF7BEFA0B4A1368013B1360074A13684F
:10388000013B136000F070FE2046FFF7FFFE034B84
:103890001B68002BE6D110BD704700BF88050020D3
:1038A0008C0500207005002008B5FFF7D7FF074BF7
:1038B0001B68012BF9D94FF0E0234FF08052C3F879
:1038C000042DBFF34F8FBFF36F8FEEE7E4050020A9
:1038D00070B504460D46234B1E68234B1868043010
:1038E000FFF786FA48B9204B1B68DB6A01229A4031
:1038F0001E490B6823EA02030B60B4F1FF3F0DD0B1
:103900003444194B1B685C60A6421DD9184B1868DB
:10391000154B19680431FFF752FA70BD002DEFD036
:10392000144A5168104B1868816018688C68C4602C
:103930001868043060601868043088601B685A6139
:10394000136801331360E8E70B4B1868064B1968DE
:103950000431FFF734FA094B1B68A342DDD9074B4A
:103960001C60DAE76C05002048060020680500208E
:10397000B405002074050020B80500205005002083
:103980002DE9F04385B00746884614461E46900050
:1039900000F07AFF18B38146582000F075FF054605
:1039A000B8B15822002102F074FDC5F83090002310
:1039B000039302950D9B01930C9B00933346224683
:1039C00041463846FFF76BFE2846FFF7E3FE01202D
:1039D00007E0484600F0D2FF4FF0FF3001E04FF023
:1039E000FF3005B0BDE8F08300B583B01A4B0193FA
:1039F00000230093822219491948FFF7C1FF0128CB
:103A000007D0B0F1FF3F1DD0164B1B6803B05DF827
:103A100004FB00F0F7FC0128F3D14FF0500383F3CF
:103A20001188BFF36F8FBFF34F8F0F4B4FF0FF32F3
:103A30001A600E4B01221A600D4B00221A6000F032
:103A40000BFEE1E74FF0500383F31188BFF36F8F54
:103A5000BFF34F8FFEE700BF4C050020C06B00088E
:103A6000A9380008286C00085005002064050020D3
:103A70006C050020024A136801331360704700BFD1
:103A800048050020014B1868704700BF6C050020F6
:103A9000014B1868704700BF70050020F8B5524B05
:103AA0001B68002B40F09980504B1C6801341C604F
:103AB000C4B94F4B1B681B6843B14FF0500383F3ED
:103AC0001188BFF36F8FBFF34F8FFEE7484A11682D
:103AD000484B186810601960474A13680133136037
:103AE000FFF7C0FD454B1B68A34211D90020444B92
:103AF0001B68DB6A03EB83039A00424B9B58012B44
:103B000000D90120404B1B68002B6BD0012069E0DD
:103B1000002037E0394B4FF0FF321A60E7E7374BB0
:103B20001A60E4E7D968516042E0002199621168A7
:103B300001391160DA6A01219140344E3768394306
:103B40003160304902EB82024FEA820C8C44DCF88F
:103B500004209A609668DE6075609560DA6A02EB10
:103B6000820C4FEA8C056E185E614D5901354FEAA3
:103B70008C0C41F80C50DA6A214B1B68DB6A9A42C4
:103B800000D901201A4B1B681B68002BC2D0184BB0
:103B90001B68DB68DB685A689442C0D35A699D6829
:103BA000D968A9609D684D6051681D1DA942B9D0B2
:103BB000002159611168013911609A6A002AB9D04F
:103BC000DE69196AB160DE694E60566803F118015A
:103BD0008E42AAD1196A5160A7E70D4A13680133D2
:103BE00013600020F8BD00BF480500206C050020D0
:103BF000B8050020B405002058050020500500201D
:103C000048060020E40500205C050020680500202F
:103C1000600500204B4B1B6843B94FF0500383F302
:103C20001188BFF36F8FBFF34F8FFEE710B500F021
:103C300079FC444B1A68013A1A601B68002B7CD14E
:103C4000414B1B683BB9002478E0196A516015E0CC
:103C5000D968516021E000233C4A1268002A49D00B
:103C60003A4BDB68DB689A6AD869196A8160D8695F
:103C70004860506803F118018842E6D0002199623B
:103C80001168013911605A699868D968816098682B
:103C900048605168181D8142DAD0002159611168CD
:103CA00001391160DA6A01219140294CD4F800C031
:103CB00041EA0C012160274902EB820201EB8202FA
:103CC00052689A609468DC6060609060DA6A02EB27
:103CD0008200840001EB80005861085901300851CE
:103CE000D96A1D4A1268D26A9142B5D31B4A012192
:103CF0001160B1E70BB1FFF7B5FC194B1C6884B933
:103D0000164B1C68D4B14FF0E0234FF08052C3F83B
:103D1000042DBFF34F8FBFF36F8F01240EE0013CE2
:103D200007D0FFF7BBFE0028F9D00C4B01221A6028
:103D3000F5E70B4B00221A60E2E7002400F014FCC8
:103D4000204610BD4805002070050020A005002079
:103D500068050020E4050020480600205C050020DE
:103D600060050020204B1B681BB1204B01221A600C
:103D700070471E4B00221A601D4B1B68B3FA83F379
:103D8000DBB2C3F11F0303EB83018A0019498A5890
:103D900042B94FF0500383F31188BFF36F8FBFF325
:103DA0004F8FFEE7134803EB83018A0002445168FA
:103DB0004968516003EB830C4FEA8C0208320244DD
:103DC000914209D003EB83039A000A4B13445B68CA
:103DD000DA68094B1A607047486862469100054AE4
:103DE0000A445060EEE700BF480500205C05002053
:103DF00068050020E40500204806002058B110B5F1
:103E00000C46094A11681831FEF7D9FF01212046F6
:103E1000FFF75EFD10BD4FF0500383F31188BFF331
:103E20006F8FBFF34F8FFEE74806002038B5D8B13B
:103E30008C46114605464268104B1868C2611868E6
:103E400094680462186818306060186818309060D0
:103E50001B689D622B6801332B6009B14FF0FF3C5A
:103E60006046FFF735FD38BD4FF0500383F31188EE
:103E7000BFF36F8FBFF34F8FFEE700BF48060020F0
:103E8000C368DB68002B4AD030B49A6AD869196AD3
:103E90008160D8694860516803F11800814247D0B9
:103EA000002199621168013911602B4A1268002AB9
:103EB00044D15A699868D9688160986848605168A7
:103EC000181D814237D000215961116801391160F4
:103ED000DA6A01219140214C25682943216020495B
:103EE00002EB820201EB820252689A609468DC6005
:103EF00060609060DA6A02EB8200840001EB80006F
:103F00005861085901300851DA6A164B1B68DB6AA0
:103F10009A421FD90120144B186030BC70474FF0F3
:103F2000500383F31188BFF36F8FBFF34F8FFEE70A
:103F3000196A5160B4E7D9685160C4E70B4A516807
:103F4000D9618C681C62606088609A621168013176
:103F50001160D9E70020E0E748050020680500204F
:103F6000E4050020480600205C050020A005002094
:103F7000034B1B680360034B1B684360704700BF23
:103F8000580500206C050020D0B170B50C460546E0
:103F9000F9B100F0C7FA1D4B19686B68C81A22689E
:103FA000B2F1FF3F2CD0DFF868C0DCF800C02E680B
:103FB000664517D08B4215D800232360012420E0EA
:103FC0004FF0500383F31188BFF36F8FBFF34F8F10
:103FD000FEE74FF0500383F31188BFF36F8FBFF3F9
:103FE0004F8FFEE7824203D800232360012408E0BC
:103FF0005B1A134423602846FFF7BAFF002400E051
:10400000002400F0B1FA204670BD00BF6C0500200E
:1040100058050020014B01221A6070475C05002002
:10402000054B1B6833B1054B1B680BB10020704773
:1040300002207047012070476405002048050020D9
:10404000002853D038B504462A4B1B68834208D059
:104050004FF0500383F31188BFF36F8FBFF34F8F7F
:10406000FEE7C36C43B94FF0500383F31188BFF3ED
:104070006F8FBFF34F8FFEE7013BC364C16A826C51
:10408000914235D00BB1002038BD051D2846FEF702
:10409000AFFE38B9E36A01229A4017490B6823EA58
:1040A00002030B60A36CE362C3F10502A26101206D
:1040B00000FA03F21049D1F800C042EA0C020A608B
:1040C0000E4A03EB830302EB83035B68A3609968EA
:1040D000E1604D609D60E36A03EB83018D0002EBBC
:1040E00081016161515901445151CDE70020704770
:1040F0000020C9E74806002068050020E4050020EC
:10410000064B1A6813682BB90123036023B9D368DF
:10411000186870470023F8E7002070475C0600200D
:1041200008B54160006191420CD8D21A83699A4265
:1041300001D3012008BD011D094B1868FEF73FFEA1
:104140000020F7E79A4201D2994206D2011D054BA1
:104150001868FEF734FE0020ECE70120EAE700BF14
:10416000580600205C06002070B504460D46164631
:1041700004E0A3691D44236A20469847A1692B46A1
:10418000324629442046FFF7CBFF0028F1D170BD0D
:1041900070B505460E460D4B1B68DB68DC68201DBC
:1041A000FEF726FE94F8283013F0040F07D123F011
:1041B000010384F82830236A2046984770BD3246B0
:1041C00029462046FFF7D0FFF5E700BF5C06002038
:1041D00008B505E0DB684FF0FF311868FFF7D8FF3E
:1041E000054B1B681A68002AF4D1044A106802497A
:1041F0000860136008BD00BF5C0600205806002060
:1042000038B50546FFF73EFC0446074B1B68834262
:1042100005D800232B60044B1C60204638BDFFF7F7
:10422000D7FF01232B60F6E74C06002070B582B063
:1042300006460C46FFF71EFC01A8FFF7E1FF019BB5
:1042400033BB0546E4B9B04213D22246711B124B70
:104250001868FFF7DDF9FFF7DDFCD8B94FF0E02370
:104260004FF08052C3F8042DBFF34F8FBFF36F8F11
:1042700010E0FFF7CFFC29463046FFF789FF09E041
:10428000064A126812680AB90124DEE71C46DCE718
:10429000FFF7C0FC02B070BD540600205806002095
:1042A00030B585B0002201A9384B1868FFF721F816
:1042B000002869D0019B002BF4DB039C636913B1D8
:1042C000201DFEF795FD6846FFF79AFF0546019B06
:1042D000013B082BE6D8DFE803F005052930490546
:1042E0000529300094F8283043F0010384F8283081
:1042F000029BA169024619442046FFF711FF0028DE
:10430000D0D094F8283013F0040F07D123F0010324
:1043100084F82830236A20469847C3E7A3692A46D1
:10432000029919442046FFF71FFFF3E794F828305D
:1043300023F0010384F82830B4E794F8283043F0E0
:10434000010384F828300299A16131B10346024685
:1043500001442046FFF7E4FEA4E74FF0500383F347
:104360001188BFF36F8FBFF34F8FFEE794F82830AB
:1043700013F0020F04D023F0010384F8283091E7F2
:10438000204600F0FBFA8DE705B030BD5406002052
:1043900000B583B001A8FFF7B3FE0199FFF746FF10
:1043A000FFF77EFFF6E7000038B500F0BBF80F4BD3
:1043B0001B6813B100F0D8F838BD0D4D2846FEF744
:1043C000F0FC0C4C2046FEF7ECFC0B4B1D600B4B3D
:1043D0001C6000220C210A20FEF723FE034B18600C
:1043E0000028E7D00649FFF7E3F8E3E7540600208A
:1043F00074060020600600205C060020580600209D
:10440000C86B000800B583B0FFF7CEFF0D4B1B68EB
:104410005BB10D4B01930223009300234FF4827292
:104420000A490B48FFF7ACFA40B94FF0500383F349
:104430001188BFF36F8FBFF34F8FFEE703B05DF8B6
:1044400004FB00BF5406002050060020D06B00087B
:104450009143000882B0002301930D4B1B68B3F118
:10446000FF3F08D04FF0500383F31188BFF36F8FE5
:10447000BFF34F8FFEE74FF0500383F31188BFF374
:104480006F8FBFF34F8F019B002BFCD002B07047A2
:104490000C00002008480068006880F308884FF08E
:1044A000000080F3148862B661B6BFF34F8FBFF38C
:1044B0006F8F00DF00BF000008ED00E0DFF80C00A8
:1044C000016841F4700101607047000088ED00E070
:1044D0004FF0807340F8043C21F0010140F8081CC3
:1044E000054B40F80C3C40F8202C6FF0020340F8DC
:1044F000243C4438704700BF5544000800000000C9
:10450000074B19680868B0E8F04F80F30988BFF3DB
:104510006F8F4FF0000080F311887047AFF3008079
:10452000480600204FF0500383F31188BFF36F8FCC
:10453000BFF34F8F0B4A136801331360012B00D078
:1045400070474FF0E023D3F8043D13F0FF0FF7D08E
:104550004FF0500383F31188BFF36F8FBFF34F8F7A
:10456000FEE700BF0C000020094B1B6843B94FF069
:10457000500383F31188BFF36F8FBFF34F8FFEE7B4
:10458000013B034A13600BB983F31188704700BFE6
:104590000C000020000000000000000000000000EF
:1045A000EFF30980BFF36F8F154B1A681EF0100FE1
:1045B00008BF20ED108A20E9F04F10602DE90900B6
:1045C0004FF0500080F31188BFF34F8FBFF36F8F10
:1045D000FFF7C8FB4FF0000080F3118809BC196891
:1045E0000868B0E8F04F1EF0100F08BFB0EC108A5A
:1045F00080F30988BFF36F8F704700BFAFF300806F
:104600004806002008B54FF0500383F31188BFF32C
:104610006F8FBFF34F8FFFF741FA28B14FF0E023C0
:104620004FF08052C3F8042D002383F3118808BD96
:104630004FF0E022002313619361054B1B6805498D
:10464000A1FB03139B09013B5361072313617047CF
:1046500008000020D34D62104FF0E023D3F8002D66
:104660003D4B9A421CD04FF0E023D3F8002D3B4B3A
:104670009A421ED030B583B0394B1A78D2B201922B
:10468000FF221A701B78DBB28DF803309DF80330DF
:1046900003F05003334A1370334B07221A601BE0B8
:1046A0004FF0500383F31188BFF36F8FBFF34F8F29
:1046B000FEE74FF0500383F31188BFF36F8FBFF312
:1046C0004F8FFEE7284A1368013B13609DF80330C3
:1046D0005B00DBB28DF803309DF8033013F0800FE0
:1046E000F0D1214B1B68032B08D04FF0500383F30C
:1046F0001188BFF36F8FBFF34F8FFEE71B021A4A7B
:10470000136003F4E0631360019BDBB2144A13707F
:104710004FF0E024D4F8203D43F47003C4F8203D6A
:10472000D4F8203D43F07043C4F8203DFFF780FFEC
:1047300000250E4B1D60FFF7C1FED4F8343F43F057
:104740004043C4F8343FFFF7A5FEFFF70BFBFFF72C
:1047500081FE284603B030BD71C20F4170C20F41C7
:1047600000E400E08C060020880600200C000020F9
:10477000EFF305830F2B0ED9114A9A5C114B1B786E
:104780009A4208D24FF0500383F31188BFF36F8F22
:10479000BFF34F8FFEE74FF0E023D3F80C3D03F457
:1047A000E063094A1268934208D94FF0500383F33B
:1047B0001188BFF36F8FBFF34F8FFEE7704700BFC5
:1047C000F0E300E08C06002088060020104A12F07A
:1047D000070F1AD0D11D21F00701C1F596331344FC
:1047E0000A460C480260002141601344083B23F054
:1047F00007030948036059601960991A51601360F2
:10480000064B1960064B196070474FF49633E8E782
:10481000AC060020A4060020A00600209806002078
:104820009C060020164B1A461B688342FBD3516836
:1048300002EB010C844509D0416800EB010C634593
:1048400009D00360904219D010607047406801445D
:1048500051601046F0E710B40A4C2468A3420BD014
:104860005B681944416013681B680360904200D084
:1048700010605DF8044B70470460F7E7704700BFB5
:10488000A4060020A006002070B50546FFF7F2F848
:10489000354B1B685BB175B105F00703C3F110021E
:1048A000113BAB4206D3AD1805D5002647E0FFF714
:1048B0008DFFF0E70025002D40D02C4B1B68AB424C
:1048C0004BD32B4A146801E022461C466368AB4276
:1048D00002D22368002BF7D1234B1B68A3423ED0A2
:1048E000166808362368136063685B1B102B10D9A9
:1048F000601910F0070F08D04FF0500383F31188B0
:10490000BFF36F8FBFF34F8FFEE743606560FFF724
:1049100089FF626815490B689B1A0B601549096885
:104920008B4201D213490B6042F0004262600023C7
:104930002360114A13680133136000E00026FFF77B
:1049400069F916F0070F0CD04FF0500383F311886C
:10495000BFF36F8FBFF34F8FFEE70026EFE7002610
:10496000EDE7304670BD00BFA00600209C06002089
:10497000A4060020980600209406002090B338B5C5
:104980000446A0F1080550F8043C002B08DB4FF06A
:10499000500383F31188BFF36F8FBFF34F8FFEE790
:1049A00050F8082C42B14FF0500383F31188BFF345
:1049B0006F8FBFF34F8FFEE723F0004340F8043CB6
:1049C000FFF758F854F8041C074A13680B441360A7
:1049D0002846FFF727FF054A136801331360FFF7E6
:1049E00019F938BD704700BF9C06002090060020D2
:1049F0009A4200D28854704770470146002008E070
:104A000000EB8000531C0B60137803EB4003A3F111
:104A100030000A681378303BDBB2092BF0D97047BD
:104A20002DE9F04F83B005460E4693461F46DDF84C
:104A300030A00D9CDDF838900F9B13F0030F19D1B7
:104A4000A046019208E002F1010B3B4631462020CE
:104A5000A84708F101085A46C845F4D3DDF804B068
:104A600008E0013C02F101083B4631461AF8040017
:104A7000A8474246002CF4D10F9B13F0020F09D136
:104A8000104603B0BDE8F08F541C3B463146202051
:104A9000A8472246A2EB0B034B45F5D3F0E72DE9DF
:104AA000F04385B099460C9D0D9C9DF83880DDF84B
:104AB00040E0119F129E16F0020F21D17FB116F037
:104AC000010F0CD0B8F1000F02D116F00C0F06D078
:104AD000013F04E04FF0300C05F804C00134744588
:104AE00001D21F2CF6D916F0010F09D0BC4207D213
:104AF0001F2C05D84FF0300C05F804C00134F2E744
:104B000016F0100F14D016F4806F04D11CB1744548
:104B100022D0BC4220D00F9B102B33D00F9B022BF6
:104B20003DD01F2C0ED84FF0300C05F804C00134D6
:104B30001F2C07D8B8F1000F39D04FF02D0C05F815
:104B400004C0013403960297019400954B46FFF789
:104B500067FF05B0BDE8F083B4F1010C1DD00F9BD9
:104B6000102B0ED064460F9B102BD7D116F0200FC0
:104B7000D4D01F2CD2D84FF0580C05F804C0013403
:104B8000CFE7023C16F0200FEDD11F2CEBD84FF0F1
:104B9000780C05F804C00134C3E76446BBE71F2C5A
:104BA000D0D84FF0620C05F804C00134B9E716F014
:104BB000040F05D04FF02B0C05F804C00134C1E7F9
:104BC00016F0080FBED04FF0200C05F804C00134D9
:104BD000B8E7F0B591B0169C189D1B9E0CB926F055
:104BE000100616F4806E1DD064B34FF0000E19E06D
:104BF00016F0200F24D04127BC445FFA8CFCACF1A6
:104C00000A0C5FFA8CFC0EF101070EF1400EEE4427
:104C10000EF820CCB4FBF5FCAC4214D31F2F12D8F5
:104C2000BE466446B4FBF5FC05FB1C4C5FFA8CFCED
:104C3000BCF1090FDCD80CF1300C5FFA8CFCE2E718
:104C40006127D9E7274606961A9C0594199C049477
:104C500003959DF85C400294019708AC0094FFF71F
:104C60001EFF11B0F0BD2DE9F04F95B009900A91EB
:104C70000B929846DDF878B0DDF87C90229D239F5A
:104C8000269E5BEA090201D126F0100616F4806424
:104C900024D05BEA09022FD000241FE016F0200F79
:104CA00028D041231344DBB20A3BDBB204F1010AF2
:104CB00004F150020DEB020404F8203C2A463B4666
:104CC00058464946FBF70AFFAB4579EB070915D370
:104CD000BAF11F0F12D85446834689462A463B46EE
:104CE00058464946FBF7FAFED2B2092AD6D83032E6
:104CF000D3B2DBE76123D5E74FF0000A0696259B88
:104D00000593249B049303959DF880300293CDF87E
:104D100004A00CAB009343460B9A0A990998FFF73D
:104D2000BEFE15B0BDE8F08F2DE9F04F2DED028BE2
:104D300093B082460C4693461D4657EC106B8DEDA2
:104D4000080B32463B4630463946FBF74DFE0028FD
:104D500000F00A814FF0FF32B14B30463946FBF785
:104D60006BFE002840F000814FF0FF326FF480139B
:104D700030463946FBF742FE002840F0F58000221D
:104D80000023DDE9086730463946FBF737FE002887
:104D900040F0FD809DED087B8DED067B209B13F49C
:104DA0008063119301D106231E93DDE906010246BB
:104DB000079BC3F30A50C3F31303904643F07F5994
:104DC00049F44019A0F2FF30FBF73CFB82A3D3E982
:104DD0000023FBF7A1FB82A3D3E90023FBF7E6F94D
:104DE00006460F4600228F4B40464946FBF7DCF94A
:104DF0007DA3D3E90023FBF78FFB02460B46304629
:104E00003946FBF7D3F9FBF721FE0646FBF71AFB01
:104E10008046894676A3D3E90023FBF77DFB002279
:104E2000814BFBF7C3F9FBF711FE074672A3D3E9E9
:104E3000002340464946FBF76FFB804689463846CB
:104E4000FBF700FB6EA3D3E90023FBF765FB0246EB
:104E50000B4640464946FBF7A7F98046894602467D
:104E60000B46FBF759FBCDE90C0107F2FF37002198
:104E70000022CDE90A123B050B9300230A93424618
:104E80004B4640464946FBF791F9CDE90E014246B3
:104E90004B4600204FF08041FBF786F9804689465B
:104EA0000022624BDDE90C01FBF760FC0022604B45
:104EB000FBF77CF902460B46DDE90C01FBF756FCDB
:104EC00000225C4BFBF772F902460B46DDE90C0150
:104ED000FBF74CFC02460B4640464946FBF766F999
:104EE00002460B46DDE90E01FBF740FC0022524B67
:104EF000FBF75CF9DDE90A23FBF70EFB80468946E8
:104F000049EC188BDDE90623FBF796FD40B1013E25
:104F10000022474B40464946FBF728FC41EC180B62
:104F200006F16303C62B3BD80427209B13F4006FC4
:104F300040D035A3D3E90023DDE906894046494640
:104F4000FBF770FD00283BD031A3D3E90023404696
:104F50004946FBF753FD002832D01E9BB34221DDAA
:104F60009E1B731E1E931FE0209B02931F9B0193A9
:104F70001E9B00939DED080B2B465A46214650463A
:104F800000F0CAF813B0BDEC028BBDE8F08F9FEDC6
:104F9000227B8DED067B069607F100430793FDE625
:104FA0000527C2E700231E93209B43F480632093D0
:104FB00000273E461F9B9F4240D2A3EB07083FE0DD
:104FC0001E9B002BF6D0119B002BF3D01E9B013BA8
:104FD0001E93EFE7AFF30080FB799F501344D33F5C
:104FE000B3C8608B288AC63F61436F63A787D23FEF
:104FF00071A379094F930A401655B5BBB16B0240B6
:10500000EF39FAFE422EE63F2D431CEBE2361A3F03
:105010000000000080842E4100000000000000001D
:10502000FFFFEF7F0000F83F0000E03F00002C4052
:1050300000002440000018400000F03F4FF000083E
:10504000209B13F0020902D00FB14FF000083EB1CF
:1050500053EC182BDDE90601FBF788FBCDE90601CF
:1050600000220023DDE90801FBF7C8FC00283BD142
:10507000209B23F400630293CDF804801E9B0093D1
:105080009DED060B2B465A462146504600F044F84B
:10509000002F3FF477AF209B13F0200F2CD04FF060
:1050A000450C00F101082B46024621466046D047D8
:1050B00086EAE672A2EBE67205230593013F0497A8
:1050C000002303930A230293F30F019300922B46CC
:1050D000424621465046FFF77CFDB9F1000F3FF4F0
:1050E00051AF02461F9F10E0DDE90601024601F1C3
:1050F0000043CDE90623BBE74FF0650CD1E7561C12
:105100002B4621462020D0473246A2EB0B03BB4260
:10511000F5D3104636E700BF2DE9F04F2DED028B99
:1051200093B00590089192469B4659EC108B1E9DBA
:1051300042464B4640464946FBF756FC002840D0C5
:105140004FF0FF326FF4801340464946FBF756FCA0
:10515000002845D14FF0FF32AB4B40464946FBF7A4
:105160006BFC00284BD1A4A3D3E900234046494659
:10517000FBF762FC002858D1A1A3D3E900234046E5
:105180004946FBF73BFC00284FD100220023404654
:105190004946FBF733FC002855D100230993209B97
:1051A00013F4806F5AD000241F2C59D8092D57D9D9
:1051B00004F148036B44302203F8202C013D0134F4
:1051C000F2E7209B03931F9B0293032301938F4BD2
:1051D00000935B46524608990598FFF721FC05E1CC
:1051E000209B03931F9B029304230193884B0093FE
:1051F0005B46524608990598FFF712FCF6E0209BA3
:1052000013F0040F0ED0834B0422209903911F99B1
:105210000291019200935B46524608990598FFF768
:10522000FFFBE3E07C4B0322EFE7209B02931F9BF5
:105230000193009549EC108B5B46524608990598FE
:10524000FFF772FDD2E042464B4600200021FAF7FC
:10525000ABFF8046894601230993A0E70625A2E714
:1052600040464946FBF7F2FB0646FBF7EBF80246E1
:105270000B4640464946FAF797FF684B03EBC503D8
:1052800093ED008B53EC182BFBF746F902460B46C7
:10529000CDE90623FBF702FC0746FBF7C3F80246FD
:1052A0000B46DDE90601FAF77FFF02460B46CDE922
:1052B000062300225A4BFBF7BFFB08B301373846E1
:1052C000FBF7B0F802460B4651EC180BFBF7A0FBBE
:1052D00008B1013600270DBB3046FBF7B3F8024694
:1052E0000B4640464946FAF75FFF00224C4BFBF75E
:1052F00085FB002842D116F0010F3FD001363DE07A
:105300000022474BDDE90601FBF778FB0028E2D1DC
:1053100017B117F0010FDED00137DCE71F2C17D8CB
:10532000013D404BA3FB0723DB08194603EB830336
:10533000A7EB4303621C303304F148000DEB00047B
:1053400004F8203C092F02D90F461446E6E714461C
:105350001F2C0AD86B1E45B104F148026A44302163
:1053600002F8201C1D460134F2E71F2C06D804F178
:1053700048036B442E2203F8202C01341F2C17D82D
:10538000294A82FB0632F317C3EBA2031A4603EB4A
:105390008303A6EB4303611C303304F148000DEB9B
:1053A000000404F8203C16460AB10C46E6E70C4619
:1053B000209B03F00303012B38D01F2C09D8099B35
:1053C000002B50D004F148036B442D2203F8202C0D
:1053D0000134209B03931F9B029301940AAB00931B
:1053E0005B46524608990598FFF71AFB13B0BDECCF
:1053F000028BBDE8F08F00BF0000000065CDCD41FD
:105400000000000065CDCDC1FFFFEF7FE46B000819
:10541000E86B0008D86B0008E06B0008306C0008EF
:105420000000E03FCDCCCCCC676666661F9BB3B175
:10543000099B1BB9209B13F00C0F12D01F9B013B43
:105440001F93194606E004F148036B44302203F829
:10545000202C01348C42B0D21F2CF4D9ADE71F9917
:10546000F8E71F99F6E7209B13F0040F07D004F12B
:1054700048036B442B2203F8202C0134A9E7209B1E
:1054800013F0080FA5D004F148036B44202203F861
:10549000202C01349DE700BF2DE9F04F8FB08046EE
:1054A00017460D938946002900F04B83002508E03C
:1054B0006C1C3B462A464946C0470D9B01330D9361
:1054C00025460D9B1878002800F03E832528EFD153
:1054D00001330D9300261FE046F0010601320D92C4
:1054E000012318E046F0020601320D92012312E07A
:1054F00046F0040601320D9201230CE046F0080646
:1055000001320D92012306E046F0100601320D92A1
:10551000012300E000234BB30D9A1378203B102B9E
:10552000F8D801A151F823F0FD54000815550008E2
:1055300015550008095500081555000815550008AF
:105540001555000815550008155500081555000893
:1055500015550008F154000815550008E5540008D9
:105560001555000815550008D95400080A930D9BDD
:105570001A78A2F13003DBB2092B18D92A2A1BD0E2
:105580000A9B0B930D9B1A782E2A25D00D9A13781F
:10559000683B122B5CD8DFE803F0495BAC5B3B5BFC
:1055A0005B5B5B5B5B5B575B5B5B5B5BB1000DA855
:1055B000FFF723FA0B90E5E7189B1A1D18921B685A
:1055C000002B04DB0B930D9B01330D93DAE746F0C0
:1055D00002065B420B93F6E746F480665A1C0D9276
:1055E0005A78A2F13003DBB2092B0CD92A2ACDD18B
:1055F000189B1A1D18921C6824EAE4730A930D9BE9
:1056000001330D93C2E70DA8FFF7F7F90A90BDE744
:1056100046F48071531C0D9353786C2B01D00E46C9
:1056200016E046F4407602320D9211E046F0800119
:10563000531C0D935378682B01D00E4608E046F0BA
:10564000C00602320D9203E046F4807601320D92DC
:105650000D9B1878672856D82528C0F06882A0F1DD
:105660002503422B00F26382DFE813F05602610249
:105670006102610261026102610261026102610212
:105680006102610261026102610261026102610202
:1056900061026102610261026102610261026102F2
:1056A00061026102610261026102610286016801B8
:1056B00086016102610261026102610261026102AE
:1056C00061026102610261026102610261026102C2
:1056D00061027100610261026102610261026102A4
:1056E0006102610261027100AB0171008601680113
:1056F000860146F4007601320D92A9E746F48076E1
:1057000001320D92A4E7782800F211826928C0F0D6
:105710000E82A0F16902D2B20123934049F2410204
:10572000134214D113F0800F40F0DB8113F4806F2B
:1057300000F0FD81189B1A1D1892D3F800A00A9B57
:10574000002B40F08C814FF0FF32534670E16F2800
:105750003DD005D858283CD0622803D1022304E06C
:10576000782838D026F010060A23582835D0692822
:1057700003D0642801D026F00C0616F4806F01D007
:1057800026F0010669282BD0642829D016F4007F62
:1057900040F0968016F4807F40F0AE8016F0400F07
:1057A00000F0BF80189A111D1891127805960B9978
:1057B00004910A99039102930023019300923B46BE
:1057C0002A4649464046FFF704FA054629E00823E1
:1057D000CBE71023C9E71023C7E746F02006C6E74A
:1057E00016F4007F21D116F4807F42D116F0400FCD
:1057F00058D0189A111D1891127882EAE271A1EB23
:10580000E27105960B9804900A9803900293D20FC8
:10581000019200913B462A4649464046FFF7D9F996
:1058200005460D9B01330D934BE6189A073222F083
:10583000070202F108011891516812680846002910
:1058400013DB08960B9C07940A9C06940493002390
:105850000593C90F0291009201903B462A464946A2
:105860004046FFF700FA0546DBE7524261EB410094
:10587000E7E7189A111D1891126882EAE271A1EB0C
:10588000E27105960B9804900A9803900293D20F48
:10589000019200913B462A4649464046FFF799F956
:1058A0000546BEE716F0800F05D0189A111D189115
:1058B000B2F90020A1E7189A111D189112689CE70F
:1058C000189A073222F0070202F10801189108968F
:1058D0000B9907910A990691002104930591029171
:1058E000D2E90023CDE900233B462A4649464046FB
:1058F000FFF7B9F9054694E7189A111D1891059616
:105900000B9904910A990391029300230193136860
:1059100000933B462A4649464046FFF75AF905465A
:105920007FE716F0800F04D0189A111D1891128885
:105930003CE7189A111D1891126837E7462818D0CD
:10594000189B073323F0070303F10802189293ED25
:10595000000B02960B9B01930A9B00933B462A4641
:1059600049464046FFF7D8FB05460D9B01330D9392
:10597000A7E546F02006E3E7672801D0472801D1D4
:1059800046F40066452801D0472801D146F020069C
:10599000189B073323F0070303F10802189293EDD5
:1059A000000B02960B9B01930A9B00933B462A46F1
:1059B00049464046FFF7B8F905460D9B01330D9364
:1059C0007FE516F002061CD001241898031D1893D9
:1059D00005F1010A3B462A4649460078C047AEB960
:1059E0000D9B01330D9355466BE5551C3B464946CF
:1059F0002020C04723462A465C1C9A45F5D8154608
:105A0000E3E70123DDF82CA02A46F5E75246DDF84E
:105A10002CA006E0561C3B4649462020C0472C4699
:105A20003246651CA245F5D89246D9E701330A46AD
:105A3000197811B1511E002AF8D1A3EB0A0316F40C
:105A4000806B03D00A9A934228BF134616F00204D3
:105A500007D00C940A9E2A465D469B4623E00A9A8C
:105A600073E6CDF830B02A4625460B9C07E002F1DC
:105A7000010B3B4649462020C04733465A465E1C30
:105A80009C42F4D8DDF830B02C4633460C940A9E84
:105A90005D469B4607E01E460AF1010A541C3B4640
:105AA0004946C04722469AF8000020B1002DF3D0A5
:105AB000731E002EEFD10C9C15465B461CB90D9B46
:105AC00001330D93FDE40B9E06E0551C3B46494611
:105AD0002020C04723462A465C1C9E42F5D8154626
