:020000040800F2
:1000000000000220A9710008A5120008A71200082C
:10001000A9120008AB120008AD1200080000000091
:10002000000000000000000000000000814D0008FA
:10003000AF12000800000000214E0008854E0008A5
:10004000F9710008F9710008F9710008F9710008E8
:10005000F9710008F9710008F9710008F9710008D8
:10006000F9710008F9710008F9710008F9710008C8
:10007000F9710008F9710008F9710008F9710008B8
:10008000F9710008F9710008F9710008F9710008A8
:10009000F9710008F9710008F9710008F971000898
:1000A000F9710008F9710008F9710008F971000888
:1000B000B1120008C1120008F9710008F9710008B6
:1000C000F9710008F9710008F9710008F971000868
:1000D000F9710008F9710008D1120008E112000856
:1000E000F9710008F9710008F9710008F971000848
:1000F000F9710008F9710008F9710008F971000838
:10010000F9710008F9710008F9710008F971000827
:10011000F9710008F9710008F112000801130008D4
:1001200011130008F9710008F9710008F97100084D
:10013000F9710008F9710008F9710008F9710008F7
:10014000F9710008F9710008F9710008F9710008E7
:10015000F9710008F9710008F9710008F9710008D7
:10016000F9710008F9710008F9710008F9710008C7
:10017000F9710008F9710008F97100080000000029
:08018000F9710008F971000893
:10019000034613F8012B002AFBD1181A01387047C7
:1001A00081F0004102E000BF83F0004330B54FEA28
:1001B00041044FEA430594EA050F08BF90EA020F95
:1001C0001FBF54EA000C55EA020C7FEA645C7FEA28
:1001D000655C00F0E2804FEA5454D4EB5555B8BF4B
:1001E0006D420CDD2C4480EA020281EA030382EABC
:1001F000000083EA010180EA020281EA0303362D4E
:1002000088BF30BD11F0004F4FEA01314FF4801C20
:100210004CEA113102D0404261EB410113F0004F32
:100220004FEA03334CEA133302D0524263EB4303E9
:1002300094EA050F00F0A780A4F10104D5F1200E87
:100240000DDB02FA0EFC22FA05F2801841F10001E2
:1002500003FA0EF2801843FA05F359410EE0A5F1B6
:1002600020050EF1200E012A03FA0EFC28BF4CF0E7
:10027000020C43FA05F3C01851EBE37101F000459D
:1002800007D54FF0000EDCF1000C7EEB00006EEBAA
:100290000101B1F5801F1BD3B1F5001F0CD3490834
:1002A0005FEA30004FEA3C0C04F101044FEA44528B
:1002B00012F5800F80F09A80BCF1004F08BF5FEA12
:1002C000500C50F1000041EB045141EA050130BDF2
:1002D0005FEA4C0C404141EB0101013C28BFB1F504
:1002E000801FE9D291F0000F04BF01460020B1FA4F
:1002F00081F308BF2033A3F10B03B3F120020CDA22
:100300000C3208DD02F1140CC2F10C0201FA0CF0FF
:1003100021FA02F10CE002F11402D8BFC2F1200C64
:1003200001FA02F120FA0CFCDCBF41EA0C0190401A
:10033000E41AA2BF01EB0451294330BD6FEA040463
:100340001F3C1CDA0C340EDC04F11404C4F120024E
:1003500020FA04F001FA02F340EA030021FA04F360
:1003600045EA030130BDC4F10C04C4F1200220FAB7
:1003700002F001FA04F340EA0300294630BD21FAF5
:1003800004F0294630BD94F0000F83F4801306BFBB
:1003900081F480110134013D4EE77FEA645C18BFAF
:1003A0007FEA655C29D094EA050F08BF90EA020F46
:1003B00005D054EA000C04BF1946104630BD91EA3E
:1003C000030F1EBF0021002030BD5FEA545C05D141
:1003D0004000494128BF41F0004130BD14F5800480
:1003E0003CBF01F5801130BD01F0004545F0FE41F4
:1003F00041F470014FF0000030BD7FEA645C1ABF29
:10040000194610467FEA655C1CBF0B46024650EA5F
:10041000013406BF52EA033591EA030F41F400218B
:1004200030BD00BF90F0000F04BF0021704730B511
:100430004FF4806404F132044FF000054FF00001E6
:1004400050E700BF90F0000F04BF0021704730B5A7
:100450004FF4806404F1320410F0004548BF40427C
:100460004FF000013EE700BF42004FEAE2014FEAD1
:1004700031014FEA02701FBF12F07F4393F07F4FAC
:1004800081F06051704732F07F4208BF704793F0AF
:100490007F4F04BF41F40021704730B54FF46074C2
:1004A00001F0004521F000411CE700BF50EA0102C5
:1004B00008BF704730B54FF000050AE050EA01026E
:1004C00008BF704730B511F0004502D5404261EBDE
:1004D00041014FF4806404F132045FEA915C3FF41F
:1004E000D8AE4FF003025FEADC0C18BF03325FEABC
:1004F000DC0C18BF033202EBDC02C2F1200300FA6D
:1005000003FC20FA02F001FA03FE40EA0E0021FA91
:1005100002F11444BDE600BF70B54FF0FF0C4CF47F
:10052000E06C1CEA11541DBF1CEA135594EA0C0F31
:1005300095EA0C0F00F0DEF82C4481EA030621EA6C
:100540004C5123EA4C5350EA013518BF52EA0335A7
:1005500041F4801143F4801338D0A0FB02CE4FF059
:100560000005E1FB02E506F00042E0FB03E54FF089
:100570000006E1FB03569CF0000F18BF4EF0010E81
:10058000A4F1FF04B6F5007F64F5407404D25FEA7D
:100590004E0E6D4146EB060642EAC62141EA555130
:1005A0004FEAC52040EA5E504FEACE2EB4F1FD0C72
:1005B00088BFBCF5E06F1ED8BEF1004F08BF5FEAF0
:1005C000500E50F1000041EB045170BD06F00046A2
:1005D00046EA010140EA020081EA0301B4EB5C044F
:1005E000C2BFD4EB0C0541EA045170BD41F4801147
:1005F0004FF0000E013C00F3AB8014F1360FDEBF6C
:10060000002001F0004170BDC4F10004203C35DA47
:100610000C341BDC04F11404C4F1200500FA05F3CA
:1006200020FA04F001FA05F240EA020001F000426B
:1006300021F0004110EBD37021FA04F642EB0601E1
:100640005EEA430E08BF20EAD37070BDC4F10C040B
:10065000C4F1200500FA04F320FA05F001FA04F2CF
:1006600040EA020001F0004110EBD37041F10001BB
:100670005EEA430E08BF20EAD37070BDC4F12005C6
:1006800000FA05F24EEA020E20FA04F301FA05F22E
:1006900043EA020321FA04F001F0004121FA04F2D6
:1006A00020EA020000EBD3705EEA430E08BF20EAA6
:1006B000D37070BD94F0000F0FD101F000464000E0
:1006C00041EB010111F4801F08BF013CF7D041EA62
:1006D000060195F0000F18BF704703F00046520066
:1006E00043EB030313F4801F08BF013DF7D043EA37
:1006F0000603704794EA0C0F0CEA135518BF95EAED
:100700000C0F0CD050EA410618BF52EA4306D1D173
:1007100081EA030101F000414FF0000070BD50EA92
:10072000410606BF1046194652EA430619D094EA1C
:100730000C0F02D150EA013613D195EA0C0F05D106
:1007400052EA03361CBF104619460AD181EA03015A
:1007500001F0004141F0FE4141F470014FF0000012
:1007600070BD41F0FE4141F4780170BD70B54FF0AD
:10077000FF0C4CF4E06C1CEA11541DBF1CEA13552D
:1007800094EA0C0F95EA0C0F00F0A7F8A4EB05040F
:1007900081EA030E52EA03354FEA013100F0888006
:1007A0004FEA03334FF0805545EA131343EA1263CF
:1007B0004FEA022245EA111545EA10654FEA002684
:1007C0000EF000419D4208BF964244F1FD0404F53D
:1007D000407402D25B084FEA3202B61A65EB030599
:1007E0005B084FEA32024FF480104FF4002CB6EB56
:1007F000020E75EB030E22BFB61A754640EA0C00D6
:100800005B084FEA3202B6EB020E75EB030E22BF15
:10081000B61A754640EA5C005B084FEA3202B6EB56
:10082000020E75EB030E22BFB61A754640EA9C0015
:100830005B084FEA3202B6EB020E75EB030E22BFE5
:10084000B61A754640EADC0055EA060E18D04FEAA3
:10085000051545EA16754FEA06164FEAC30343EA43
:1008600052734FEAC2025FEA1C1CC0D111F4801F10
:100870000BD141EA00014FF000004FF0004CB6E709
:1008800011F4801F04BF01430020B4F1FD0C88BFA8
:10089000BCF5E06F3FF6AFAEB5EB030C04BFB6EBB3
:1008A000020C5FEA500C50F1000041EB045170BDA6
:1008B0000EF0004E4EEA113114EB5C04C2BFD4EBD3
:1008C0000C0541EA045170BD41F480114FF0000E57
:1008D000013C90E645EA060E8DE60CEA135594EAD3
:1008E0000C0F08BF95EA0C0F3FF43BAF94EA0C0FD6
:1008F0000AD150EA01347FF434AF95EA0C0F7FF44B
:1009000025AF104619462CE795EA0C0F06D152EA9E
:1009100003353FF4FDAE1046194622E750EA410682
:1009200018BF52EA43067FF4C5AE50EA41047FF493
:100930000DAF52EA43057FF4EBAE12E74FF0FF3CF8
:1009400006E000BF4FF0010C02E000BF4FF0010CC9
:100950004DF804CD4FEA410C7FEA6C5C4FEA430C42
:1009600018BF7FEA6C5C1BD001B050EA410C0CBF91
:1009700052EA430C91EA030F02BF90EA020F0020F3
:10098000704710F1000F91EA030F58BF994208BF5A
:1009900090422CBFD8176FEAE37040F00100704717
:1009A0004FEA410C7FEA6C5C02D150EA013C07D16E
:1009B0004FEA430C7FEA6C5CD6D152EA033CD3D0B9
:1009C0005DF8040B704700BF8446104662468C46B3
:1009D0001946634600E000BF01B5FFF7B7FF0028E6
:1009E00048BF10F1000F01BD4DF808EDFFF7F4FF0F
:1009F0000CBF012000205DF808FB00BF4DF808ED9A
:100A0000FFF7EAFF34BF012000205DF808FB00BFBC
:100A10004DF808EDFFF7E0FF94BF012000205DF8DE
:100A200008FB00BF4DF808EDFFF7CEFF94BF012093
:100A300000205DF808FB00BF4DF808EDFFF7C4FF8C
:100A400034BF012000205DF808FB00BF4FEA4102DF
:100A500012F5001215D211D56FF47873B3EB625210
:100A600012D94FEAC12343F0004343EA505311F037
:100A7000004F23FA02F018BF404270474FF00000C9
:100A8000704750EA013005D111F0004008BF6FF007
:100A9000004070474FF00000704700BF4A0011D27D
:100AA00012F5001211D20DD56FF47873B3EB6252C8
:100AB0000ED44FEAC12343F0004343EA505323FAD4
:100AC00002F070474FF00000704750EA013002D149
:100AD0004FF0FF3070474FF0000070474FEA41027F
:100AE000B2F1E04324BFB3F5001CDCF1FE5C0DD98C
:100AF00001F0004C4FEAC0024CEA5070B2F1004FD6
:100B000040EB830008BF20F00100704711F0804FD8
:100B100021D113F13872BCBF01F00040704741F49D
:100B200080114FEA5252C2F11802C2F1200C10FAA1
:100B30000CF320FA02F018BF40F001004FEAC12385
:100B40004FEAD32303FA0CFC40EA0C0023FA02F329
:100B50004FEA4303CCE77FEA625307D150EA0133FF
:100B60001EBF4FF0FE4040F44000704701F00040CF
:100B700040F0FE4040F40000704700BF80F00040AD
:100B800002E000BF81F0004142001FBF5FEA410365
:100B900092EA030F7FEA226C7FEA236C6AD04FEA65
:100BA0001262D2EB1363C1BFD218414048404140AA
:100BB000B8BF5B42192B88BF704710F0004F40F45C
:100BC000000020F07F4018BF404211F0004F41F478
:100BD000000121F07F4118BF494292EA030F3FD044
:100BE000A2F1010241FA03FC10EB0C00C3F1200357
:100BF00001FA03F100F0004302D5494260EB4000E6
:100C0000B0F5000F13D3B0F1807F06D340084FEA50
:100C1000310102F10102FE2A51D2B1F1004F40EB45
:100C2000C25008BF20F0010040EA030070474900AD
:100C300040EB0000013A28BFB0F5000FEDD2B0FA4A
:100C400080FCACF1080CB2EB0C0200FA0CF0AABF6D
:100C500000EBC25052421843BCBFD040184370470B
:100C600092F0000F81F4000106BF80F40000013211
:100C7000013BB5E74FEA41037FEA226C18BF7FEAE8
:100C8000236C21D092EA030F04D092F0000F08BF2A
:100C90000846704790EA010F1CBF0020704712F011
:100CA0007F4F04D1400028BF40F00040704712F150
:100CB00000723CBF00F50000704700F0004343F0B5
:100CC000FE4040F4000070477FEA226216BF0846EB
:100CD0007FEA23630146420206BF5FEA412390EAAE
:100CE000010F40F4800070474FF0000304E000BFA4
:100CF00010F0004348BF40425FEA000C08BF704755
:100D000043F0964301464FF000001CE050EA010218
:100D100008BF70474FF000030AE000BF50EA01022D
:100D200008BF704711F0004302D5404261EB41011A
:100D30005FEA010C02BF84460146002043F0B6433F
:100D400008BFA3F18053A3F50003BCFA8CF2083A64
:100D5000A3EBC25310DB01FA02FC634400FA02FC6D
:100D6000C2F12002BCF1004F20FA02F243EB020074
:100D700008BF20F00100704702F1200201FA02FCD6
:100D8000C2F1200250EA4C0021FA02F243EB0200C9
:100D900008BF20EADC70704753B94AB9002908BF80
:100DA00000281CBF4FF0FF314FF0FF3000F00CB8AF
:100DB000ADF1080C6DE904CE06F0B2FCDDF804E0FC
:100DC000DDE9022304B07047704700BF0348044BBD
:100DD000834202D0034B03B1184770475C000020E8
:100DE0005C000020000000000548064B1B1AD90FCC
:100DF00001EBA301491002D0034B03B11847704720
:100E00005C0000205C0000200000000010B5064CD3
:100E1000237843B9FFF7DAFF044B13B10448AFF36B
:100E200000800123237010BD5C0000200000000042
:100E3000187A000808B5054B1BB105490548AFF302
:100E40000080BDE80840FFF7CFBF00BF00000000F2
:100E500060000020187A000870B58AB005AD002443
:100E60000594069407940894099401941D4B1A6BF9
:100E700042F080021A631A6B02F080020192019A1A
:100E800002941A6B42F001021A631A6B02F001021B
:100E90000292029A03941A6B42F002021A631A6BCE
:100EA00002F002020392039A04941A6B42F00802C1
:100EB0001A631B6B03F008030493049B0A4E22463B
:100EC0004FF47041304600F0E9FF4FF47043059352
:100ED00001230693079408942946304600F0E8FE63
:100EE0000AB070BD00380240000C024000B583B06B
:100EF00000220192094B196B41F4800119631B6BAD
:100F000003F480030193019B0821382001F08AFA41
:100F1000382001F097FA03B05DF804FB0038024076
:100F200072B6FEE710B58CB003AC24220021204637
:100F300006F063F900230193029313484FF08042B7
:100F40000260436083604FF0FF32C2600361802320
:100F500083610323039302220492012305930892E1
:100F60000993214601F058FC48B9002301930293EC
:100F700001A9054801F032FD18B90CB010BDFFF70A
:100F8000CFFFFFF7CDFF00BF9804002008B50A4847
:100F90000A4B03604FF4E133436000238360C36076
:100FA00003610C2242618361C36101F045FE00B917
:100FB00008BDFFF7B5FF00BF7803002000440040E4
:100FC00008B50A480A4B03604FF4612343600023CD
:100FD0008360C36003610C2242618361C36101F0DD
:100FE0002BFE00B908BDFFF79BFF00BF30030020B8
:100FF0000048004000B583B00023009301930F48E0
:101000000F4A026040F247324260836040F2E733A9
:10101000C3608023836101F0D3FB50B900230093A8
:1010200001936946054801F0D9FC20B903B05DF889
:1010300004FBFFF775FFFFF773FF00BF08040020F4
:101040000010004000B583B00023009301930E48C8
:101050000E4A026053224260836040F2E733C3606D
:101060008023836101F0ACFB50B90023009301930E
:101070006946054801F0B2FC20B903B05DF804FBF5
:10108000FFF74EFFFFF74CFFC003002000140040A5
:1010900010B58CB003AC24220021204606F0ADF838
:1010A0000023019302931248124A02604360836056
:1010B0004FF6FF72C2600361836103230393022230
:1010C00004920123059308920993214601F0A4FBA1
:1010D00048B900230193029301A9054801F07EFC61
:1010E00018B90CB010BDFFF71BFFFFF719FF00BFC9
:1010F000500400200004004000B585B00023009398
:101100000193029303931448144A02604FF480320F
:101110004260836003610122027680F82030C3625E
:101120000F498162C360C26180F83020426102F0E1
:101130006BF860B90523009301230193029369467C
:10114000054802F0A7F920B905B05DF804FBFFF7E8
:10115000E7FEFFF7E5FE00BF40050020002001404C
:101160000100000F10B594B008AC302200212046D9
:1011700006F043F800230393049305930693079323
:1011800001931F4A116C41F080511164126C02F0FE
:1011900080520192019A02931A4A116841F48041E7
:1011A0001160126802F480420292029A02220892AE
:1011B00001210B9110210C910E920F930823109393
:1011C000A8231193129204231393204600F030FABF
:1011D00090B90F23039302230493002305934FF444
:1011E000A05306934FF480530793052103A800F002
:1011F00089FC18B914B010BDFFF792FEFFF790FEFE
:10120000003802400070004008B501F059F9FFF7BE
:10121000A9FFFFF721FEFFF769FEFFF783FEFFF747
:10122000B5FEFFF7CDFEFFF7E5FEFFF70BFFFFF77B
:101230002FFFFFF761FF154B1B68154C20469847A1
:10124000D4F8BC504FF4FA63142203212046A84777
:10125000104B1B68104C20469847D4F8BC5040F601
:10126000AC53192202212046A8470C4B1B680C4C9A
:1012700020469847D4F8BC5040F2DC531422012198
:101280002046A84702F0F2FFFEE700BF387B0008C7
:101290004C020020407B000864010020447B0008D1
:1012A00078000020FEE7FEE7FEE7FEE7FEE7704776
:1012B00008B5024801F069F908BD00BF9804002094
:1012C00008B5024801F061F908BD00BF50040020D4
:1012D00008B5024801F084FD08BD00BF7803002076
:1012E00008B5024801F07CFD08BD00BF30030020B6
:1012F00008B5024801F049F908BD00BF0804002004
:1013000008B5024801F041F908BD00BFC003002044
:1013100008B5024800F044FF08BD00BFE00400200B
:1013200082B0002100910B4B5A6C42F480425A6407
:101330005A6C02F480420092009A01911A6C42F0B9
:1013400080521A641B6C03F080530193019B02B01E
:10135000704700BF0038024030B589B000230393C6
:101360000493059306930793026803F1804303F502
:1013700090339A4201D009B030BD04460025019552
:1013800003F58C335A6C42F480725A645A6C02F43E
:1013900080720192019A02951A6B42F001021A635F
:1013A0001B6B03F001030293029B2023039303238F
:1013B000049303A9104800F07BFC1048104B036015
:1013C00045608560C5604FF4806303614FF400633E
:1013D00043614FF4005383614FF48073C36105622E
:1013E000456200F0E7FD18B9044BA3639C63C2E7B4
:1013F000FFF796FDF8E700BF00000240E004002080
:101400001064024010B58AB0002305930693079339
:10141000089309930368B3F1804F04D02B4A934299
:101420002BD00AB010BD0024019403F50E331A6CC2
:1014300042F001021A641A6C02F001020192019A50
:1014400002941A6B42F001021A631B6B03F0010352
:101450000293029B0323059302230693012309931E
:1014600005A91B4800F024FC224606211C2000F0A0
:10147000D9FF1C2000F0E6FFD3E700240394154BAE
:101480001A6C42F002021A641A6C02F00202039211
:10149000039A04941A6B42F001021A631B6B03F067
:1014A00001030493049BC02305930223069309932D
:1014B00005A9074800F0FCFB224607211D2000F08B
:1014C000B1FF1D2000F0BEFFABE700BF00040040ED
:1014D000000002400038024000B583B00368184A9B
:1014E000934205D0174A934216D003B05DF804FB2F
:1014F00000220092144B196C41F0100119641B6C0E
:1015000003F010030093009B0921362000F08AFFAE
:10151000362000F097FFE8E7002201920A4B196C91
:1015200041F0200119641B6C03F020030193019B1F
:101530000A21372000F076FF372000F083FFD4E740
:1015400000100040001400400038024010B58AB07E
:1015500000230593069307930893099303682F4A82
:10156000934204D02E4A93422CD00AB010BD0024DE
:1015700001942C4B1A6C42F400321A641A6C02F477
:1015800000320192019A02941A6B42F001021A632E
:101590001B6B03F001030293029B0C2305930223B0
:1015A0000693032308930723099305A91E4800F017
:1015B0007FFB22460B21262000F034FF262000F07E
:1015C00041FFD2E700240394164B1A6C42F48022A8
:1015D0001A641A6C02F480220392039A04941A6B20
:1015E00042F002021A631B6B03F002030493049B94
:1015F0004FF44063059302230693032308930723C4
:10160000099305A9094800F053FB22460C21272025
:1016100000F008FF272000F015FFA6E70044004077
:101620000048004000380240000002400004024030
:10163000002800F0E08170B582B00446036813F022
:10164000010F3BD09F4B9B6803F00C03042B2CD065
:101650009C4B9B6803F00C03082B21D06368B3F507
:10166000803F4FD0B3F5A02F52D0964B1A6822F48A
:1016700080321A601A6822F480221A606368002B94
:1016800050D000F037FF05468E4B1B6813F4003F27
:1016900014D100F02FFF401B6428F5D90320B1E1DD
:1016A000884B5B6813F4800FD8D0864B1B6813F40B
:1016B000003F03D06368002B00F09F81236813F084
:1016C000020F54D07F4B9B6813F00C0F3ED07D4B24
:1016D0009B6803F00C03082B33D0E368002B68D021
:1016E000794B01221A6000F005FF0546754B1B6817
:1016F00013F0020F54D100F0FDFE401B0228F5D973
:1017000003207FE16F4A136843F480331360B5E729
:101710006C4B1A6842F480221A601A6842F48032D4
:101720001A60ABE700F0E6FE0546664B1B6813F453
:10173000003FC3D000F0DEFE401B6428F5D9032033
:1017400060E1604B5B6813F4800FC6D15D4B1B6892
:1017500013F0020F03D0E368012B40F05081594A87
:10176000136823F0F803216943EAC1031360236877
:1017700013F0080F42D063696BB3534B0122C3F8D7
:10178000802E00F0B7FE05464E4B5B6F13F0020F44
:1017900034D100F0AFFE401B0228F5D9032031E11F
:1017A000484A136823F0F803216943EAC103136030
:1017B000DDE7454B00221A6000F09CFE0546414BD8
:1017C0001B6813F0020FD2D000F094FE401B0228D9
:1017D000F5D9032016E13C4B0022C3F8802E00F01F
:1017E00089FE0546374B5B6F13F0020F06D000F001
:1017F00081FE401B0228F5D9032003E1236813F082
:10180000040F77D02F4B1B6C13F0805F33D1002374
:1018100001932C4B1A6C42F080521A641B6C03F03B
:1018200080530193019B0125284B1B6813F4807F93
:1018300023D0A368012B34D0052B38D0214B1A6F4D
:1018400022F001021A671A6F22F004021A67A368D5
:10185000002B3DD000F04EFE06461A4B1B6F13F0D6
:10186000020F46D100F046FE801B41F288339842B9
:10187000F3D90320C6E00025D6E7144A136843F4E1
:101880008073136000F036FE0646104B1B6813F49D
:10189000807FCED100F02EFE801B0228F5D90320D8
:1018A000B0E0084A136F43F001031367CFE7054B1D
:1018B0001A6F42F004021A671A6F42F001021A67A7
:1018C000C5E700BF003802400000474200700040FA
:1018D00000F010FE0646524B1B6F13F0020F08D0AB
:1018E00000F008FE801B41F288339842F3D90320B0
:1018F00088E0EDB9A369002B00F08380484A926824
:1019000002F00C02082A51D0022B17D0454B0022BE
:101910001A6600F0EFFD0446414B1B6813F0007F90
:1019200042D000F0E7FD001B0228F5D9032069E052
:101930003B4A136C23F080531364DBE7394B0022DE
:101940001A6600F0D7FD0546354B1B6813F0007F83
:1019500006D000F0CFFD401B0228F5D9032051E04E
:10196000E369226A1343626A43EA8213A26A520855
:10197000013A43EA0243E26A43EA0263284A5360B7
:10198000284B01221A6600F0B5FD0446244B1B6863
:1019900013F0007F06D100F0ADFD001B0228F5D941
:1019A00003202FE000202DE000202BE0012B2BD086
:1019B0001B4B5B6803F48001E269914226D103F07E
:1019C0003F02216A8A4223D1616A47F6C0721A40F7
:1019D000B2EB811F1ED103F44031A26A5208013AD2
:1019E000B1EB024F18D103F07063E26AB3EB026F00
:1019F00014D1002006E001207047012002E0012000
:101A000000E0002002B070BD0120FBE70120F9E7F3
:101A10000120F7E70120F5E70120F3E70120F1E7D6
:101A2000003802400000474208B5334B9B6803F082
:101A30000C03042B5BD0082B5BD12F4B5A6802F0B0
:101A40003F025B6813F4800F2CD02B4B5868C0F317
:101A500088104FEA401CBCEB000C6EEB0E0E4FEAF8
:101A60008E1343EA9C634FEA8C11B1EB0C0163EBDC
:101A70000E03DB0043EA5173C90011EB000C43F184
:101A80000003590200234FEA4C2041EADC51FFF7E2
:101A900083F9194B5B68C3F3014301335B00B0FB6F
:101AA000F3F008BD144B5868C0F388104FEA401C8F
:101AB000BCEB000C6EEB0E0E4FEA8E1343EA9C63F8
:101AC0004FEA8C11B1EB0C0163EB0E03DB0043EA30
:101AD0005173C90011EB000C43F10003990200237C
:101AE0004FEA8C2041EA9C51FFF756F9D1E70348B1
:101AF000D7E70348D5E700BF0038024000127A005C
:101B00000024F400002800F09B8070B50D460446C8
:101B10004F4B1B6803F007038B4208D2CBB24C4AF1
:101B20001370136803F007038B4240F08B80236827
:101B300013F0020F17D013F0040F04D0454A936836
:101B400043F4E0539360236813F0080F04D0414A34
:101B5000936843F4604393603E4A936823F0F00334
:101B6000A1680B439360236813F0010F32D06368C0
:101B7000012B21D09A1E012A25D9364A126812F06B
:101B8000020F61D033498A6822F0030213438B604D
:101B900000F0B0FC06462F4B9B6803F00C03626814
:101BA000B3EB820F16D000F0A5FC801B41F2883306
:101BB0009842F0D9032042E0264A126812F4003F0E
:101BC000E0D101203BE0234A126812F0007FD9D116
:101BD000012034E01E4B1B6803F00703AB4207D91A
:101BE000EAB21B4B1A701B6803F00703AB422DD1FE
:101BF000236813F0040F06D0164A936823F4E053C9
:101C0000E1680B439360236813F0080F07D0114A73
:101C1000936823F46043216943EAC1039360FFF7AB
:101C200003FF0C4B9B68C3F303130B4AD35CD840F0
:101C30000A4B18600A4B186800F01CFC002070BDAD
:101C4000012070470120FAE70120F8E70120F6E7BC
:101C5000003C024000380240407A000808000020A2
:101C600004000020014B1868704700BF08000020E6
:101C700008B5FFF7F7FF044B9B68C3F38223034AC1
:101C8000D35CD84008BD00BF00380240387A000855
:101C900008B5FFF7E7FF044B9B68C3F34233034AE1
:101CA000D35CD84008BD00BF00380240387A000835
:101CB00000230F2B00F2E98070B582B065E08568E3
:101CC0004FEA430E032404FA0EF425EA0405CC6817
:101CD00004FA0EF42C438460446824EA02044A683F
:101CE000C2F300129A40224342605CE0DC080834F0
:101CF00050F8242003F00705AD004FF00F0E0EFA48
:101D000005FE22EA0E0E0A69AA4042EA0E0240F8D7
:101D100024205CE0072200E0002202FA0EF22A43AF
:101D200002345A4D45F82420594A94686FEA0C024F
:101D300024EA0C054E6816F4801F01D04CEA040515
:101D4000534CA560E46802EA04054E6816F4001FCF
:101D500001D04CEA04054E4CE560646802EA0405D3
:101D60004E6816F4003F01D04CEA0405484C65600B
:101D7000246822404D6815F4803F01D04CEA0402EB
:101D8000434C226001330F2B7DD801229A400C680E
:101D900004EA020C32EA0404F4D14C6804F00304AF
:101DA000013C012C8BD94A6802F00302032A09D0B6
:101DB000C4685D000322AA4024EA02048A68AA409B
:101DC0002243C2604A6802F00302022A8ED00468ED
:101DD0004FEA430E032202FA0EF224EA02044A6892
:101DE00002F0030202FA0EF2224302604A6812F481
:101DF000403FC7D000220192264A546C44F48044EC
:101E00005464526C02F480420192019A9C08A51C11
:101E10001E4A52F8255003F0030E4FEA8E0E0F2291
:101E200002FA0EF225EA02051B4A90423FF474AF13
:101E300002F5806290421AD002F58062904218D07A
:101E400002F58062904216D002F58062904214D072
:101E500002F58062904212D002F58062904210D06A
:101E600002F5806290423FF455AF082255E7012207
:101E700053E7022251E703224FE704224DE70522F0
:101E80004BE7062249E702B070BD704700380140B9
:101E9000003C014000380240000002400AB181616C
:101EA0007047090481617047436901EA030221EA2E
:101EB000030141EA02418161704730B405682C6832
:101EC00024F480242C60046863608368402B05D070
:101ED000036899600368DA6030BC704703689A60F1
:101EE0000368D960F8E7000010B40368D9B210396C
:101EF0000A4AA2FB01421209094CA25CC2655F2991
:101F000007D96FF3090304338365806D5DF8044BD3
:101F100070476FF309038365F7E700BFABAAAAAA6E
:101F2000307A0008836A826992B9012B0AD0022BA9
:101F300002D00BB100207047C36A13F0807F28D114
:101F400000207047C36AB3F1C07F24D000207047DF
:101F5000B2F5005F09D0022B25D9032B25D1C36A26
:101F600013F0807F23D100207047032B03D8DFE8D4
:101F700003F01404140A00207047C36A13F0807F32
:101F80000DD100207047C36AB3F1C07F09D0002093
:101F900070470120704701207047012070470120E1
:101FA00070470120704701207047002070470120D2
:101FB0007047000070B5044600F09CFA002C5BD01E
:101FC0000546022384F83530002384F83430226833
:101FD000136823F00103136023681A6812F0010FDD
:101FE0000AD000F087FA431B052BF5D9202363653F
:101FF000032084F8350070BD1A68204911406268DA
:10200000A0680243E068024320690243606902431A
:10201000A0690243E0690243206A02430A43616AFD
:1020200004291ED01A602668756925F00705636AC1
:102030001D43042B07D1A36A1D43E36A1BB120464D
:10204000FFF770FF90B975612046FFF74DFFE26D15
:102050003F239340836000206065012384F835307E
:10206000C9E7E16A206B01430A43DBE7402363656C
:10207000012084F83500BEE70120BCE73F8010F066
:1020800038B50446856D90F8340001282AD0012027
:1020900084F8340094F83500012804D0002384F833
:1020A0003430022038BD022084F8350000206065FD
:1020B0002046FFF702FFE26D3F239340AB602268AA
:1020C000136843F016031360236C23B1226813686E
:1020D00043F0080313602268136843F001031360A0
:1020E0000020DFE70220DDE770B50446866D00F0D2
:1020F00001FA94F83530022B06D080236365002363
:1021000084F83430012070BD05462268136823F03E
:10211000160313602268536923F080035361236C14
:10212000E3B12268136823F0080313602268136880
:1021300023F00103136023681B6813F0010F11D013
:1021400000F0D8F9431B052BF5D920236365032044
:1021500084F83500002384F83430D4E7A36C002BD6
:10216000DFD1E3E7E26D3F239340B360012384F8BE
:102170003530002084F83400C5E790F83530022B64
:1021800003D08023436501207047052380F8353054
:102190000268136823F001031360002070470000F9
:1021A000F0B583B0044600230193724B1D68724B57
:1021B000A3FB0535AD0A876D3E68C26D08239340C9
:1021C000334210D003681A6812F0040F0BD01A685B
:1021D00022F004021A60C26D08239340BB60436D75
:1021E00043F001034365E26D01239340334209D07C
:1021F0002268526912F0800F04D0BB60636D43F017
:1022000002036365E26D04239340334209D02268E0
:10221000126812F0020F04D0BB60636D43F0040338
:102220006365E26D10239340334224D02268126824
:1022300012F0080F1FD0BB6023681A6812F4802FB9
:102240000DD01B6813F4002F04D1236C9BB12046E2
:10225000984710E0A36C73B1204698470BE01A68CA
:1022600012F4807F03D11A6822F008021A60236CEE
:102270000BB120469847E26D20239340334254D05F
:102280002268126812F0100F4FD0BB6094F83530FE
:10229000052B0ED023681A6812F4802F33D01B68E8
:1022A00013F4002F2AD1636C002B3ED020469847B0
:1022B0003BE02268136823F0160313602268536919
:1022C00023F080035361236CA3B12268136823F0C9
:1022D00008031360E26D3F239340BB60012384F841
:1022E0003530002384F83430236D002B3FD0204656
:1022F00098473CE0A36C002BE7D1EBE7E36BA3B17D
:102300002046984711E01A6812F4807F09D11A68B4
:1023100022F010021A60012384F83530002384F87B
:102320003430E36B0BB120469847636DFBB1636DAE
:1023300013F0010F17D0052384F835302268136895
:1023400023F001031360019B01330193AB4204D8D6
:1023500023681B6813F0010FF5D1012384F8353091
:10236000002384F83430E36C0BB12046984703B067
:10237000F0BD00BF08000020B5814E1B002807DB20
:1023800000F01F02400901239340024A42F8203026
:10239000704700BF00E100E0002808DB0901C9B276
:1023A00000F1604000F5614080F80013704700F0D4
:1023B0000F000901C9B2014B1954704714ED00E038
:1023C00000B500F00700C0F1070CBCF1040F28BFF6
:1023D0004FF0040C031D062B0FD9C31E4FF0FF3E18
:1023E0000EFA0CF021EA000199400EFA03FE22EAEF
:1023F0000E0241EA02005DF804FB0023EEE7000054
:10240000074AD36823F4E0631B041B0C000200F4AA
:10241000E060034343F0BF6343F40033D36070478D
:1024200000ED00E010B50446054BD868C0F302206B
:10243000FFF7C6FF01462046FFF7AEFF10BD00BF05
:1024400000ED00E008B5FFF799FF08BD0138B0F1D5
:10245000807F0BD24FF0E0235861054AF02182F8CB
:1024600023100020986107221A61704701207047ED
:1024700000ED00E010B504460E4B1A784FF47A7365
:10248000B3FBF2F30C4A1068B0FBF3F0FFF7DEFF8A
:1024900068B90F2C01D901200AE0002221464FF033
:1024A000FF30FFF7BFFF054B1C60002000E001205C
:1024B00010BD00BF00000020080000200400002024
:1024C00008B50B4B1A6842F400721A601A6842F49D
:1024D00080621A601A6842F480721A600320FFF763
:1024E0008FFF0F20FFF7C6FFFEF71AFF002008BD81
:1024F000003C0240014B1868704700BF880500206F
:1025000090F83D30012B37D1022380F83D3002682E
:10251000D36843F00103D3600368194A934220D083
:10252000B3F1804F1DD0A2F57C42934219D002F541
:102530008062934215D002F58062934211D002F579
:10254000784293420DD002F57052934209D0A2F521
:102550009432934205D01A6842F001021A600020BA
:1025600070479A6802F00702062A07D01A6842F0FC
:1025700001021A6000207047012070470020704758
:102580000000014070477047704770B5044603680B
:10259000DE681D6915F0020F10D016F0020F0DD085
:1025A0006FF002021A610123037703689B6913F03D
:1025B000030F5ED003F072FF0023237715F0040FA2
:1025C00012D016F0040F0FD023686FF004021A61C6
:1025D0000223237723689B6913F4407F4FD0204662
:1025E00003F05CFF0023237715F0080F12D016F0DC
:1025F000080F0FD023686FF008021A6104232377B5
:102600002368DB6913F0030F40D0204603F046FF38
:102610000023237715F0100F12D016F0100F0FD0F3
:1026200023686FF010021A61082323772368DB699F
:1026300013F4407F31D0204603F030FF002323778E
:1026400015F0010F02D016F0010F2DD115F0800FFB
:1026500002D016F0800F2FD115F0400F02D016F0E7
:10266000400F31D115F0200F02D016F0200F33D1DA
:1026700070BDFFF787FF2046FFF785FF9CE72046E8
:10268000FFF780FF2046FFF77EFFABE72046FFF70E
:1026900079FF2046FFF777FFBAE72046FFF772FF82
:1026A0002046FFF770FFC9E723686FF001021A6147
:1026B000204603F02BFFC9E723686FF080021A6100
:1026C000204600F0D2F9C7E723686FF040021A6194
:1026D0002046FFF759FFC5E723686FF020021A6113
:1026E000204600F0C1F9C3E70368344A904212D093
:1026F000B0F1804F0FD0A2F57C4290420BD002F592
:102700008062904207D002F58062904203D002F5C9
:102710007842904203D123F070034A681343274A5A
:1027200090422AD0B0F1804F27D0A2F57C4290424F
:1027300023D002F5806290421FD002F58062904261
:102740001BD002F57842904217D002F570529042A9
:1027500013D002F5806290420FD002F58062904261
:102760000BD0A2F59832904207D002F580629042D9
:1027700003D002F58062904203D123F44073CA680B
:10278000134323F080034A69134303608B68C362D9
:102790000B688362094B984203D003F5806398422B
:1027A00001D10B69036301234361036913F0010F36
:1027B00003D0036923F00103036170470000014067
:1027C00040B310B5044690F83D30F3B1022384F8CD
:1027D0003D30214651F8040BFFF786FF012384F8B2
:1027E000463084F83E3084F83F3084F8403084F836
:1027F000413084F8423084F8433084F8443084F81F
:10280000453084F83D30002010BD80F83C30FEF7A4
:1028100063FEDBE701207047002853D0F8B50D4672
:10282000044690F83D30002B47D0022384F83D3019
:102830002268936823F4804323F0070393602146C2
:1028400051F8040BFFF750FF21688B688A690E6A04
:102850002868184322F4407222F00302AB68AF6983
:1028600043EA0723134323F47C4323F0FC03EA6881
:10287000EF6942EA07221A432B6A1B032F6943EAD6
:102880000713134326F0AA066A686D6942EA051227
:102890003243886021688B6123681A62012384F8BF
:1028A000463084F83E3084F83F3084F8423084F873
:1028B000433084F83D300020F8BD80F83C30FEF70E
:1028C000A1FDB2E70120704701F01F014FF0010C9C
:1028D0000CFA01FC036A23EA0C030362036A8A40D0
:1028E00013430362704738B5044690F83E00C0B207
:1028F00094F83F3094F84220D2B294F843C00D4689
:1029000009BB01285ED1012A5DD1022384F83E3043
:1029100084F84230002D39D0042D48D00122002106
:102920002068FFF7D1FF012204212068FFF7CCFFC8
:102930002268D36843F00203D3602268D36843F06F
:102940000403D3602CE0DBB25FFA8CFC042912D0C4
:1029500001283DD1012B36D1012A3BD1BCF1010F19
:102960003AD1022384F83E3084F83F3084F8423074
:1029700084F84330CEE7012B26D1BCF1010F25D1DD
:10298000022384F83F3084F84330C3E7012200215A
:102990002068FFF799FF2268D36843F00203D360F1
:1029A0002268136843F00103136000200BE001224A
:1029B00004212068FFF788FF2268D36843F00403EE
:1029C000D360EDE7012038BD0120FCE71846FAE7A7
:1029D0000120F8E71846F6E71046F4E790F83C20A7
:1029E000012A3DD010B40346012280F83C20022287
:1029F00080F83D2002685068946820F0700C0868E8
:102A000040EA0C0050601A68164882421AD0B2F1AF
:102A1000804F17D0A0F57C40824213D000F5806033
:102A200082420FD000F5806082420BD000F57840E2
:102A3000824207D000F57050824203D0A0F5943056
:102A4000824204D124F0800449682143916001222C
:102A500083F83D20002083F83C005DF8044B70476C
:102A6000022070470000014070477047026802F181
:102A70000C0353E8003F23F490730C3242E800311A
:102A80000029F3D1026802F1140353E8003F23F058
:102A90000103143242E800310029F3D1036B012B0A
:102AA00005D0202380F8423000230363704702687A
:102AB00002F10C0353E8003F23F010030C3242E80C
:102AC00000310029F3D1ECE790F84130212B01D0FF
:102AD000022070478368B3F5805F17D0036A5A1CE1
:102AE00002621A7803685A60C38C9BB2013B9BB2A6
:102AF000C3844BB90268D36823F08003D3600268B3
:102B0000D36843F04003D360002070470369002B73
:102B1000E4D1036A1B880268C3F308035360036AA5
:102B200002330362E0E7000010B50446026813694F
:102B300023F44053C1680B431361836802691A434D
:102B400043691A43C3691A430168CB6823F41643E7
:102B500023F00C031343CB600268536923F44073E2
:102B600081690B4353610368314A934206D002F5F1
:102B70008062934202D0FFF77BF801E0FFF788F80C
:102B8000E369B3F5004F29D00021031849411B1810
:102B900041F10001C90041EA5371DB001818636874
:102BA0004FEA83024FEA937341F10001FEF7F4F814
:102BB000204AA2FB00314909642303FB11031B01D6
:102BC0003233A2FB03235B0903F0F00202EB011294
:102BD00003F00F03216813448B6010BD002302181B
:102BE00043EB0301121841F10001C90041EA52719F
:102BF000D200101841F10001626892185B41FEF7A3
:102C0000CBF80C4AA2FB00314909642303FB1103F2
:102C1000DB003233A2FB03235B095A0002F4F87293
:102C200002EB011203F00703216813448B60D4E721
:102C3000001001401F85EB5160B310B5044690F8B9
:102C4000413013B3242384F841302268D36823F43D
:102C50000053D3602046FFF767FF2268136923F40F
:102C6000904313612268536923F02A035361226859
:102C7000D36843F40053D36000206064202384F8B9
:102C8000413084F84230606310BD80F84030FEF778
:102C90005DFCD7E70120704790F84130202B10D120
:102CA00089B192B101628284C284002343642122EB
:102CB00080F841200168CA6842F08002CA60184664
:102CC000704702207047012070470120704708B507
:102CD0000168CA6822F04002CA60202280F84120C0
:102CE00003F00CFD002008BD704708B5806B002381
:102CF000C385C384FFF7F8FF08BD704790F84230E2
:102D0000222B69D18368B3F5805F4FD0826AB3F517
:102D1000805F04D0002B56D10369002B53D1036888
:102D20005B681370836A01338362C38D9BB2013B7E
:102D30009BB2C385002B51D100B583B00268D36824
:102D400023F02003D3600268D36823F48073D36038
:102D50000268536923F001035361202380F8423055
:102D600000234363036B012B33D100230363026809
:102D700002F10C0353E8003F23F010030C3242E849
:102D800000310029F3D103681A6812F0100F06D041
:102D9000002201921A6801925B680193019B818D68
:102DA000FFF7ABFF002003B05DF804FB0269002AC7
:102DB000ACD1826A03685B68C3F308031380836A3B
:102DC00002338362B1E703685B6803F07F0313702B
:102DD000A8E703F021FCE5E70220704700207047D8
:102DE00010B582B0044602681368D068516913F0C8
:102DF0000F0F09D113F0200F0CD010F0200F09D0C5
:102E00002046FFF77BFF16E011F0010115D110F409
:102E1000907F12D1216B012979D013F0800F03D05C
:102E200010F0800F40F0148113F0400F03D010F029
:102E3000400F40F0118102B010BD13F0010F06D019
:102E400010F4807F03D0626C42F00102626413F0E0
:102E5000040F04D019B1626C42F00202626413F0F4
:102E6000020F04D019B1626C42F00402626413F0E4
:102E7000080F07D010F0200F00D119B1626C42F09A
:102E800008026264626C002AD5D013F0200F02D0D1
:102E900010F0200F29D123685B6903F04003626CB6
:102EA00012F0080F00D163B32046FFF7DFFD23685F
:102EB0005B6913F0400F20D0226802F1140353E83D
:102EC000003F23F04003143242E800310029F3D1DF
:102ED000E36B73B1624A1A65E06BFFF74EF90028A5
:102EE000A9D0E06B036D9847A5E72046FFF706FFE2
:102EF000D1E72046FFF7F8FE9DE72046FFF7F4FEF6
:102F000099E72046FFF7F0FE0023636493E713F090
:102F1000100F82D010F0100F3FF47FAF0023019309
:102F20001368019353680193019B536913F0400F99
:102F300052D0E26B13685B689BB2002B3FF47BAF0F
:102F4000A18D99427FF677AFE385D369B3F5807F92
:102F500037D0226802F10C0353E8003F23F480735A
:102F60000C3242E800310029F3D1226802F1140347
:102F700053E8003F23F00103143242E800310029F6
:102F8000F3D1226802F1140353E8003F23F0400319
:102F9000143242E800310029F3D1202384F8423072
:102FA00000232363226802F10C0353E8003F23F05F
:102FB00010030C3242E800310029F3D1E06BFFF737
:102FC00093F802236363A18DE38D9BB2C91A89B282
:102FD0002046FFF792FE2EE7A18DE38D9BB2C91A22
:102FE00089B2E38D9BB2002B3FF425AF00293FF45B
:102FF00022AF226802F10C0353E8003F23F49073E0
:103000000C3242E800300028F3D1226802F11403A8
:1030100053E8003F23F00103143242E80030002857
:10302000F3D1202384F8423000232363226802F185
:103030000C0353E8003F23F010030C3242E8003049
:103040000028F3D1022363632046FFF756FEF2E621
:103050002046FFF739FDEEE62046FFF738FEEAE6A8
:10306000EB2C000881628285C28500234364222301
:1030700080F84230036923B10268D36843F4807357
:10308000D3600268536943F0010353610268D36857
:1030900043F02003D3600020704708B590F8423019
:1030A000202B08D149B10AB9012008BD00230363D0
:1030B000FFF7D8FFF9E70220F7E70120F5E7000066
:1030C000034AD2F8883043F47003C2F8883070475E
:1030D00000ED00E04A4B5A6822F440325A605A68C8
:1030E00041680A435A600268536823F4807353604E
:1030F00002685368016943EA012353600268536818
:1031000023F0407353600268536881680B43536037
:103110000268936823F40063936002689368C1684F
:103120000B439360826A374B9A4257D00268936888
:1031300023F07063936002689368816A0B43936025
:103140000268936823F04053936002689368C16AF1
:103150000B4393600268936823F002039360026854
:103160009368017E43EA4103936090F82030002B7E
:103170003FD00268536843F40063536002685368A9
:1031800023F46043536001684B68426A013A43EAA2
:1031900042334B600268D36A23F47003D362016840
:1031A000CB6AC269013A43EA0253CB620268936870
:1031B00023F4007393600268936890F8301043EA38
:1031C000412393600268936823F4806393600268EC
:1031D0009368416943EA812393607047026893686A
:1031E00023F0706393600268936823F04053936008
:1031F000B0E70268536823F400635360CAE700BF76
:10320000002301400100000F38B310B50446036CE1
:1032100043B1236C13F0100F0BD00120002384F86E
:103220003C3010BDFEF798F80023636484F83C300E
:10323000EFE7236C23F4885323F0020343F00203E7
:1032400023642046FFF746FF00206064236C23F0D0
:10325000030343F001032364E0E70120704700000B
:1032600010B582B013460022019290F83C20012A4A
:1032700000F0AE800446012280F83C20026890688D
:1032800010F0010F13D1906840F001009060534A94
:103290001068534AA2FB0020800C00EB4000019014
:1032A00002E001980138019001980028F9D12268C4
:1032B000906810F4807F03D0906820F48070906054
:1032C0002268906810F0010F77D0206C20F4E06045
:1032D00020F0010040F480702064526812F4806F86
:1032E00005D0226C22F4405242F480522264226CB7
:1032F00012F4805F36D0626C22F006026264002213
:1033000084F83C20A26B3748D063A26B3648106427
:10331000A26B3648D06422686FF0220010602068EB
:10332000426842F0806242602068826842F48072A3
:10333000826020680A4600F14C01A06BFEF7A0FEF7
:103340002B4B5B6813F01F0F27D12368294A934248
:1033500011D002F58072934207D0274A934214D0CD
:10336000002033E000226264C9E702F5007252686F
:1033700012F01F0FF1D19A6812F0405F2AD19A68BB
:1033800042F080429A60002020E002F5807252688C
:1033900012F0100FEFD0002018E02368154A934276
:1033A00001D0002012E09A6812F0405F14D19A68B0
:1033B00042F080429A60002008E0236C43F0100342
:1033C0002364636C43F001036364002002B010BD0A
:1033D0000220FBE70020F9E70020F7E708000020C3
:1033E00083DE1B4321340008FF3300080B34000840
:1033F000002301400020014000220140704708B531
:10340000806BFFF7FBFF08BD704708B5806B40235A
:103410000364436C43F004034364FFF7F5FF08BD06
:1034200008B50346806B026C12F0500F25D1036C77
:1034300043F40073036403689A6812F0405F19D183
:10344000027EBAB9DA6A12F4700F03D09A6812F4E5
:10345000806F0FD15A6822F020025A60036C23F467
:1034600080730364036C13F4805F03D1036C43F037
:103470000103036402F0CEFF08BD026C12F0100FCE
:1034800004D1826BD26C18469047F5E7FFF7BCFF7A
:10349000F2E7000030B482B00022019290F83C20A4
:1034A000012A00F0B6800346012280F83C200A6819
:1034B000092A40D90468E06892B202EB42021E3A3F
:1034C0004FF0070C0CFA02F220EA0202E2601C68DC
:1034D000E0680A8802EB42021E3A8D6805FA02F2A1
:1034E0000243E2604A68062A3CD81C68606B02EB23
:1034F0008202053A4FF01F0C0CFA02F220EA020297
:1035000062631C68606B4A6802EB8202053AB1F89C
:1035100000C00CFA02F20243626318683E4A90420D
:1035200050D018683C4A904255D0002083F83C00A7
:1035300002B030BC70470468206992B202EB4202CC
:103540004FF0070C0CFA02F220EA020222611C681A
:1035500020690A8802EB42028D6805FA02F20243F2
:103560002261BFE70C2A16D81D68286B02EB820285
:10357000233A1F2404FA02F220EA02022A631D6899
:10358000286B4A6802EB8202233A0C8804FA02F2A2
:1035900002432A63C1E71D68E86A02EB8202413AEE
:1035A0001F2404FA02F220EA0202EA621D68E86AB5
:1035B0004A6802EB8202413A0C8804FA02F20243A2
:1035C000EA62AAE70A68122AABD11448426842F4B8
:1035D00080024260A5E70A68103A012AA5D80F4880
:1035E000426842F4000242600A68102A9DD10C4AE7
:1035F00012680C49A1FB0212920C02EB82025200EB
:10360000019202E0019A013A0192019A002AF9D14D
:103610008BE702208CE700BF00200140002301401F
:103620000800002083DE1B4300F1080343604FF0D5
:10363000FF328260C3600361002303607047002390
:103640000361704730B40D68B5F1FF3F11D000F150
:1036500008031C465B681A68AA42FAD963684B6083
:1036600099608C606160086103680133036030BC5D
:1036700070470469F2E70369416882688A604168BB
:1036800051605A68824206D0002202611A68013AEB
:103690001A601868704782685A60F5E710B50446EA
:1036A00001F080FBA26BE36B9A4204D0002401F08E
:1036B0009BFB204610BD0124F9E710B5044601F03C
:1036C00071FBA36B23B9012401F08EFB204610BDD2
:1036D0000024F9E770B504461546866B026C5AB9AA
:1036E00003681BB100200136A66370BD806801F03D
:1036F000E9F80023A360F6E76DB9406803F0AAFD7E
:103700006368226C13446360A268934219D32368F0
:1037100063602846E7E7C06803F09CFDE368226C1D
:1037200051429B1AE3602268934202D2A3680B4481
:10373000E360022D01D00020D5E726B1013E002034
:10374000D1E72846CFE70020CDE70346026C6AB1F7
:1037500010B50846D9681144D9609C68A14201D3CC
:103760001968D960D96803F075FD10BD704738B588
:10377000054601F017FB95F8454064B201E0013CB5
:1037800064B2002C0ADD6B6A43B105F1240000F03D
:10379000B9FF0028F3D001F07FF8F0E7FF2385F8A8
:1037A000453001F021FB01F0FDFA95F8444064B288
:1037B00001E0013C64B2002C0ADD2B6943B105F144
:1037C000100000F09FFF0028F3D001F065F8F0E74B
:1037D000FF2385F8443001F007FB38BD38B590B1C0
:1037E0000D460446C36B2BB1026C0021A2FB0323E0
:1037F00093B999B14FF0500383F31188BFF36F8FE2
:10380000BFF34F8FFEE74FF0500383F31188BFF3F0
:103810006F8FBFF34F8FFEE70121EAE701F0C2FA95
:103820002368E26B216C01FB0230A0600020A063E2
:103830006360013A02FB0133E360FF2384F8443004
:1038400084F84530B5B923691BB901F0CDFA0120E0
:1038500038BD04F1100000F055FF0028F5D04FF0FE
:10386000E0234FF08052C3F8042DBFF34F8FBFF316
:103870006F8FEAE704F11000FFF7D6FE04F1240091
:10388000FFF7D2FEE1E738B51D46049C0B4649B967
:103890002460E063236401212046FFF79FFF84F842
:1038A0004C5038BD2260F4E7F0B583B060B10C46EF
:1038B000174605460023A4FB001272B923B904FB86
:1038C00005F010F1510F0AD94FF0500383F311881E
:1038D000BFF36F8FBFF34F8FFEE70123EEE750304A
:1038E00001F012FC064638B100903B4600F1500250
:1038F00021462846FFF7C7FF304603B0F0BDF0B5BC
:1039000085B0019288B10F461D460446B1B1022D23
:1039100020D1E36B012B1DD04FF0500383F31188AE
:10392000BFF36F8FBFF34F8FFEE74FF0500383F36A
:103930001188BFF36F8FBFF34F8FFEE7036C002B2F
:10394000E5D04FF0500383F31188BFF36F8FBFF3BF
:103950004F8FFEE700F0A6FF064658B9019B002BEB
:1039600048D04FF0500383F31188BFF36F8FBFF33C
:103970004F8FFEE700263DE02A4639462046FFF7F6
:10398000A9FE636A7BB948B14FF0E0234FF0805243
:10399000C3F8042DBFF34F8FBFF36F8F01F024FAEC
:1039A000012005B0F0BD04F1240000F0ABFE0028BA
:1039B000F4D04FF0E0234FF08052C3F8042DBFF352
:1039C0004F8FBFF36F8FE9E701F00EFA0020E8E7B1
:1039D00002A800F00FFF012619E0002384F844300C
:1039E00021E0002384F8453023E02046FFF7BFFEA6
:1039F00000F052FD01F0D6F9A26BE36B9A42BBD303
:103A0000022DB9D0019B002BDED0002EE0D001F0BA
:103A1000EBF900F071FC01F0C5F994F8442052B2C2
:103A2000B2F1FF3FD9D094F8452052B2B2F1FF3F36
:103A3000D7D001F0D9F901A902A800F0E7FED8B962
:103A40002046FFF72BFE0028CFD0019904F110008B
:103A500000F016FE2046FFF78AFE00F01DFD00284C
:103A6000C8D14FF0E0234FF08052C3F8042DBFF3CC
:103A70004F8FBFF36F8FBDE72046FFF778FE00F052
:103A80000BFD00208DE72DE9F84390B10F46164657
:103A90001C460546B1B1022C20D1EB6B012B1DD089
:103AA0004FF0500383F31188BFF36F8FBFF34F8F35
:103AB000FEE74FF0500383F31188BFF36F8FBFF31E
:103AC0004F8FFEE7036C002BE5D04FF0500383F3DC
:103AD0001188BFF36F8FBFF34F8FFEE701F088FAB5
:103AE000EFF311884FF0500383F31188BFF36F8F0A
:103AF000BFF34F8FAA6BEB6B9A4206D3022C04D014
:103B0000002088F31188BDE8F88395F845904FFAB6
:103B100089F9AB6B224639462846FFF7DBFDB9F140
:103B2000FF3F0CD16B6A0BB90120EAE705F12400D5
:103B300000F0E8FDD0B1DEB101203060E1E700F037
:103B4000E9FB814516D2B9F17F0F06D009F10103D7
:103B50005BB285F845300120D3E74FF0500383F383
:103B60001188BFF36F8FBFF34F8FFEE70120C8E7C7
:103B70000120C6E70120C4E7F0B585B0019290B1FD
:103B80000F460446C1B100F08DFE064600BB019B06
:103B9000002B5ED04FF0500383F31188BFF36F8F7B
:103BA000BFF34F8FFEE74FF0500383F31188BFF34D
:103BB0006F8FBFF34F8FFEE7036C002BE3D04FF006
:103BC000500383F31188BFF36F8FBFF34F8FFEE76E
:103BD00000263EE039462046FFF7B7FD013DA563CC
:103BE000236923B901F000F9012005B0F0BD04F10B
:103BF000100000F087FD0028F4D04FF0E0234FF0D4
:103C00008052C3F8042DBFF34F8FBFF36F8FE9E7E6
:103C100001F0EAF80020E8E702A800F0EBFD012639
:103C200021E0002384F8443029E0002384F8453063
:103C30002BE02046FFF79BFD00F02EFC09E020461C
:103C4000FFF795FD00F028FC2046FFF736FD002821
:103C50003FD101F0A7F8A56B002DBBD1019B002B34
:103C6000D6D0002ED8D001F0BFF800F045FB01F00F
:103C700099F894F844305BB2B3F1FF3FD1D094F897
:103C800045305BB2B3F1FF3FCFD001F0ADF801A9F1
:103C900002A800F0BBFD0028D1D12046FFF70DFDA2
:103CA0000028C6D0019904F1240000F0E9FC204668
:103CB000FFF75DFD00F0F0FB0028CAD14FF0E023D4
:103CC0004FF08052C3F8042DBFF34F8FBFF36F8FB7
:103CD000BFE7002089E770B584B0019290B10E462D
:103CE0000446C1B100F0DEFD054600BB019B002B80
:103CF0005ED04FF0500383F31188BFF36F8FBFF393
:103D00004F8FFEE74FF0500383F31188BFF36F8F9F
:103D1000BFF34F8FFEE7036C002BE3D04FF050034F
:103D200083F31188BFF36F8FBFF34F8FFEE700253A
:103D30003EE0E56831462046FFF707FDE560636A2F
:103D400023B901F051F8012004B070BD04F1240042
:103D500000F0D8FC0028F4D04FF0E0234FF0805260
:103D6000C3F8042DBFF34F8FBFF36F8FE9E701F066
:103D70003BF80020E8E702A800F03CFD012521E027
:103D8000002384F8443029E0002384F845302BE0F8
:103D90002046FFF7ECFC00F07FFB09E02046FFF730
:103DA000E6FC00F079FB2046FFF787FC00283FD1B6
:103DB00000F0F8FFA36B002BBBD1019B002BD6D0EA
:103DC000002DD8D001F010F800F096FA00F0EAFFCC
:103DD00094F844305BB2B3F1FF3FD1D094F8453052
:103DE0005BB2B3F1FF3FCFD000F0FEFF01A902A804
:103DF00000F00CFD0028D1D12046FFF75EFC002822
:103E0000C6D0019904F1240000F03AFC2046FFF7E7
:103E1000AEFC00F041FB0028CAD14FF0E0234FF088
:103E20008052C3F8042DBFF34F8FBFF36F8FBFE7EE
:103E3000002089E728B110B4044631B300200346BE
:103E40000DE04FF0500383F31188BFF36F8FBFF382
:103E50004F8FFEE70E4800EBC30014E00133072B41
:103E600010D80B4A02EBC3025268A242F2D00028DB
:103E7000F4D1074A52F83320002AEFD1044800EB6E
:103E8000C300EBE708B1016044605DF8044B704784
:103E90008C05002070B504460D46164600F082FFE2
:103EA00094F844305BB2B3F1FF3F0DD094F8453045
:103EB0005BB2B3F1FF3F0BD000F096FFA36B5BB199
:103EC0002046FFF754FC70BD002384F84430EDE732
:103ED000002384F84530EFE73246294604F12400F8
:103EE00000F0E6FBECE70000074B1B681B6823B9FA
:103EF000064B4FF0FF321A607047034B1B68DB68BC
:103F00001A68024B1A6070473C060020D405002056
:103F100010B50446006B01F071F9204601F06EF90E
:103F200010BD2DE9F84380460D4616469946089F78
:103F30000A9C9200A521206B03F05FF9226B06F129
:103F40008043013B02EB830222F0070665B10022A9
:103F5000092A06D8AB5CA11881F834300BB10132C4
:103F6000F6E7002384F83D30042F08D94FF05003C2
:103F700083F31188BFF36F8FBFF34F8FFEE7E762C4
:103F8000A764201DFFF75BFB04F11800FFF757FB48
:103F90002461C7F10507A76164624A46414630467D
:103FA00000F0D8FE2060099B03B11C60BDE8F883D7
:103FB00038B5002407E004EB840293000E4818444F
:103FC000FFF732FB0134042CF5D90C4D2846FFF7DE
:103FD0002BFB0B4C2046FFF727FB0A48FFF724FB7F
:103FE0000948FFF721FB0948FFF71EFB084B1D603E
:103FF000084B1C6038BD00BF680600205406002036
:10400000400600202406002010060020F8050020AD
:104010003C0600203806002010B5044600F0C2FE21
:10402000294A136801331360284B1B685BB1284B86
:104030001B686BB9254B1B68DA6AE36A9A4207D89A
:10404000224B1C6004E0214B1C601368012B37D00D
:10405000204A1368013313602364E36A01229A4003
:104060001D49086802430A601C4A03EB830302EB04
:1040700083035B68A3609868E060211D41609960DC
:10408000E36A03EB8301880002EB8101616111584F
:104090000131115000F0A8FE0D4B1B687BB10B4B9A
:1040A0001B68DA6AE36A9A4209D24FF0E0234FF0C4
:1040B0008052C3F8042DBFF34F8FBFF36F8F10BD35
:1040C000FFF776FFC4E700BFF4050020CC06002010
:1040D000E8050020D8050020EC0500206806002037
:1040E0000F4B1B68D3B110B500F05CFE0D4BDB68C5
:1040F000DC68201DFFF7BFFA0B4A1368013B136011
:10410000074A1368013B136000F06EFE2046FFF77C
:10411000FFFE034B1B68002BE6D110BD704700BFAC
:104120000C06002010060020F405002008B5FFF75B
:10413000D7FF074B1B68012BF9D94FF0E0234FF055
:104140008052C3F8042DBFF34F8FBFF36F8FEEE79C
:104150006806002070B504460D46234B1E68234BAD
:1041600018680430FFF787FA48B9204B1B68DB6AF0
:1041700001229A401E490B6823EA02030B60B4F146
:10418000FF3F0DD03444194B1B685C60A6421DD91B
:10419000184B1868154B19680431FFF753FA70BDB6
:1041A000002DEFD0144A5168104B186881601868D0
:1041B0008C68C460186804306060186804308860D7
:1041C0001B685A61136801331360E8E70B4B1868EA
:1041D000064B19680431FFF735FA094B1B68A342F7
:1041E000DDD9074B1C60DAE7F0050020CC06002083
:1041F000EC05002038060020F80500203C060020D1
:10420000D40500202DE9F04385B0074688461446C2
:104210001E46900000F078FF18B38146582000F049
:1042200073FF0546B8B15822002102F0E6FFC5F839
:1042300030900023039302950D9B01930C9B0093F8
:104240003346224641463846FFF76BFE2846FFF7C5
:10425000E3FE012007E0484600F0D0FF4FF0FF30BA
:1042600001E04FF0FF3005B0BDE8F08300B583B04A
:104270001A4B019300230093822219491948FFF732
:10428000C1FF012807D0B0F1FF3F1DD0164B1B68BE
:1042900003B05DF804FB00F0F7FC0128F3D14FF008
:1042A000500383F31188BFF36F8FBFF34F8F0F4B12
:1042B0004FF0FF321A600E4B01221A600D4B0022A4
:1042C0001A6000F009FEE1E74FF0500383F3118814
:1042D000BFF36F8FBFF34F8FFEE700BFD005002005
:1042E000507A00082D410008C47A0008D405002047
:1042F000E8050020F0050020024A1368013313602E
:10430000704700BFCC050020014B1868704700BF04
:10431000F0050020014B1868704700BFF40500202D
:10432000F8B5524B1B68002B40F09980504B1C682D
:1043300001341C60C4B94F4B1B681B6843B14FF07C
:10434000500383F31188BFF36F8FBFF34F8FFEE7E6
:10435000484A1168484B186810601960474A13684A
:1043600001331360FFF7C0FD454B1B68A34211D911
:104370000020444B1B68DB6A03EB83039A00424B2B
:104380009B58012B00D90120404B1B68002B6BD0A0
:10439000012069E0002037E0394B4FF0FF321A600E
:1043A000E7E7374B1A60E4E7D968516042E0002143
:1043B0009962116801391160DA6A01219140344E25
:1043C000376839433160304902EB82024FEA820C90
:1043D0008C44DCF804209A609668DE607560956015
:1043E000DA6A02EB820C4FEA8C056E185E614D5959
:1043F00001354FEA8C0C41F80C50DA6A214B1B68EE
:10440000DB6A9A4200D901201A4B1B681B68002BFB
:10441000C2D0184B1B68DB68DB685A689442C0D373
:104420005A699D68D968A9609D684D6051681D1DD5
:10443000A942B9D0002159611168013911609A6A05
:10444000002AB9D0DE69196AB160DE694E6056682B
:1044500003F118018E42AAD1196A5160A7E70D4AEB
:104460001368013313600020F8BD00BFCC050020A5
:10447000F00500203C06002038060020DC05002066
:10448000D4050020CC06002068060020E0050020AE
:10449000EC050020E40500204B4B1B6843B94FF0AE
:1044A000500383F31188BFF36F8FBFF34F8FFEE785
:1044B00010B500F077FC444B1A68013A1A601B688B
:1044C000002B7CD1414B1B683BB9002478E0196A72
:1044D000516015E0D968516021E000233C4A126820
:1044E000002A49D03A4BDB68DB689A6AD869196AB6
:1044F0008160D8694860506803F118018842E6D0AD
:10450000002199621168013911605A699868D96867
:104510008160986848605168181D8142DAD0002196
:104520005961116801391160DA6A01219140294C01
:10453000D4F800C041EA0C012160274902EB820255
:1045400001EB820252689A609468DC60606090605F
:10455000DA6A02EB8200840001EB8000586108599E
:1045600001300851D96A1D4A1268D26A9142B5D306
:104570001B4A01211160B1E70BB1FFF7B5FC194BE4
:104580001C6884B9164B1C68D4B14FF0E0234FF07F
:104590008052C3F8042DBFF34F8FBFF36F8F0124F8
:1045A0000EE0013C07D0FFF7BBFE0028F9D00C4B12
:1045B00001221A60F5E70B4B00221A60E2E70024A3
:1045C00000F012FC204610BDCC050020F4050020B0
:1045D00024060020EC05002068060020CC06002000
:1045E000E0050020E4050020204B1B681BB1204B98
:1045F00001221A6070471E4B00221A601D4B1B6877
:10460000B3FA83F3DBB2C3F11F0303EB83018A0028
:1046100019498A5842B94FF0500383F31188BFF308
:104620006F8FBFF34F8FFEE7134803EB83018A00C0
:10463000024451684968516003EB830C4FEA8C02D5
:1046400008320244914209D003EB83039A000A4BDB
:1046500013445B68DA68094B1A6070474868624621
:104660009100054A0A445060EEE700BFCC050020E7
:10467000E0050020EC05002068060020CC060020A4
:1046800058B110B50C46094A11681831FEF7DAFF27
:1046900001212046FFF75EFD10BD4FF0500383F36C
:1046A0001188BFF36F8FBFF34F8FFEE7CC0600205A
:1046B00038B5D8B18C46114605464268104B18688B
:1046C000C2611868946804621868183060601868DD
:1046D000183090601B689D622B6801332B6009B114
:1046E0004FF0FF3C6046FFF735FD38BD4FF05003FB
:1046F00083F31188BFF36F8FBFF34F8FFEE700BFC7
:10470000CC060020C368DB68002B4AD030B49A6A1C
:10471000D869196A8160D8694860516803F1180046
:10472000814247D0002199621168013911602B4AFA
:104730001268002A44D15A699868D96881609868DB
:1047400048605168181D814237D0002159611168B5
:1047500001391160DA6A01219140214C2568294311
:104760002160204902EB820201EB820252689A60CA
:104770009468DC6060609060DA6A02EB820084001A
:1047800001EB80005861085901300851DA6A164B74
:104790001B68DB6A9A421FD90120144B186030BC99
:1047A00070474FF0500383F31188BFF36F8FBFF34F
:1047B0004F8FFEE7196A5160B4E7D9685160C4E7CA
:1047C0000B4A5168D9618C681C62606088609A628B
:1047D000116801311160D9E70020E0E7CC05002025
:1047E000EC05002068060020CC060020E005002033
:1047F00024060020034B1B680360034B1B684360C7
:10480000704700BFDC050020F0050020D0B170B576
:104810000C460546F9B100F0C5FA1D4B19686B68E6
:10482000C81A2268B2F1FF3F2CD0DFF868C0DCF86C
:1048300000C02E68664517D08B4215D80023236030
:10484000012420E04FF0500383F31188BFF36F8FF2
:10485000BFF34F8FFEE74FF0500383F31188BFF390
:104860006F8FBFF34F8FFEE7824203D80023236090
:10487000012408E05B1A134423602846FFF7BAFFBF
:10488000002400E0002400F0AFFA204670BD00BF15
:10489000F0050020DC050020014B01221A60704762
:1048A000E0050020054B1B6833B1054B1B680BB1BD
:1048B000002070470220704701207047E805002063
:1048C000CC050020002853D038B504462A4B1B687D
:1048D000834208D04FF0500383F31188BFF36F8FEA
:1048E000BFF34F8FFEE7C36C43B94FF0500383F320
:1048F0001188BFF36F8FBFF34F8FFEE7013BC36497
:10490000C16A826C914235D00BB1002038BD051DC3
:104910002846FEF7B0FE38B9E36A01229A401749EB
:104920000B6823EA02030B60A36CE362C3F1050288
:10493000A261012000FA03F21049D1F800C042EA56
:104940000C020A600E4A03EB830302EB83035B68ED
:10495000A3609968E1604D609D60E36A03EB8301A9
:104960008D0002EB81016161515901445151CDE744
:10497000002070470020C9E7CC060020EC0500208D
:1049800068060020064B1A6813682BB901230360E0
:1049900023B9D368186870470023F8E700207047F0
:1049A000E006002008B54160006191420CD8D21A9F
:1049B00083699A4201D3012008BD011D094B186883
:1049C000FEF740FE0020F7E79A4201D2994206D254
:1049D000011D054B1868FEF735FE0020ECE70120AD
:1049E000EAE700BFDC060020E006002070B50446C0
:1049F0000D46164604E0A3691D44236A20469847E5
:104A0000A1692B46324629442046FFF7CBFF0028F8
:104A1000F1D170BD70B505460E460D4B1B68DB68C5
:104A2000DC68201DFEF727FE94F8283013F0040FF1
:104A300007D123F0010384F82830236A20469847E1
:104A400070BD324629462046FFF7D0FFF5E700BF8C
:104A5000E006002008B505E0DB684FF0FF3118687C
:104A6000FFF7D8FF054B1B681A68002AF4D1044AE7
:104A7000106802490860136008BD00BFE00600200E
:104A8000DC06002038B50546FFF73EFC0446074B20
:104A90001B68834205D800232B60044B1C60204612
:104AA00038BDFFF7D7FF01232B60F6E7D0060020C3
:104AB00070B582B006460C46FFF71EFC01A8FFF752
:104AC000E1FF019B33BB0546E4B9B04213D2224655
:104AD000711B124B1868FFF7DDF9FFF7DDFCD8B941
:104AE0004FF0E0234FF08052C3F8042DBFF34F8FF7
:104AF000BFF36F8F10E0FFF7CFFC29463046FFF77A
:104B000089FF09E0064A126812680AB90124DEE743
:104B10001C46DCE7FFF7C0FC02B070BDD8060020E1
:104B2000DC06002030B585B0002201A9384B18689A
:104B3000FFF722F8002869D0019B002BF4DB039CCF
:104B4000636913B1201DFEF796FD6846FFF79AFFD3
:104B50000546019B013B082BE6D8DFE803F005057D
:104B6000293049050529300094F8283043F0010325
:104B700084F82830029BA169024619442046FFF7B9
:104B800011FF0028D0D094F8283013F0040F07D17B
:104B900023F0010384F82830236A20469847C3E7AE
:104BA000A3692A46029919442046FFF71FFFF3E73D
:104BB00094F8283023F0010384F82830B4E794F8FF
:104BC000283043F0010384F828300299A16131B103
:104BD0000346024601442046FFF7E4FEA4E74FF0F7
:104BE000500383F31188BFF36F8FBFF34F8FFEE73E
:104BF00094F8283013F0020F04D023F0010384F856
:104C0000283091E7204600F0F9FA8DE705B030BD75
:104C1000D806002000B583B001A8FFF7B3FE0199C4
:104C2000FFF746FFFFF77EFFF6E7000038B500F01C
:104C3000B9F80F4B1B6813B100F0D6F838BD0D4D15
:104C40002846FEF7F1FC0C4C2046FEF7EDFC0B4B22
:104C50001D600B4B1C6000220C210A20FEF724FE75
:104C6000034B18600028E7D00649FFF7E3F8E3E7B5
:104C7000D8060020F8060020E4060020E006002008
:104C8000DC060020587A000800B583B0FFF7CEFF9D
:104C90000D4B1B685BB10D4B019302230093002366
:104CA0004FF482720A490B48FFF7ACFA40B94FF053
:104CB000500383F31188BFF36F8FBFF34F8FFEE76D
:104CC00003B05DF804FB00BFD8060020D406002026
:104CD000607A0008154C000882B0002301930D4B48
:104CE0001B68B3F1FF3F08D04FF0500383F31188E6
:104CF000BFF36F8FBFF34F8FFEE74FF0500383F387
:104D00001188BFF36F8FBFF34F8F019B002BFCD037
:104D100002B070470C00002008480068006880F36B
:104D200008884FF0000080F3148862B661B6BFF3C4
:104D30004F8FBFF36F8F00DF00BF000008ED00E072
:104D4000DFF80C00016841F4700101607047000059
:104D500088ED00E04FF0807340F8043C21F0010141
:104D600040F8081C054B40F80C3C40F8202C6FF034
:104D7000020340F8243C4438704700BFD94C000877
:104D8000074B19680868B0E8F04F80F30988BFF353
:104D90006F8F4FF0000080F311887047AFF30080F1
:104DA000CC0600204FF0500383F31188BFF36F8FC0
:104DB000BFF34F8F0B4A136801331360012B00D0F0
:104DC00070474FF0E023D3F8043D13F0FF0FF7D006
:104DD0004FF0500383F31188BFF36F8FBFF34F8FF2
:104DE000FEE700BF0C000020094B1B6843B94FF0E1
:104DF000500383F31188BFF36F8FBFF34F8FFEE72C
:104E0000013B034A13600BB983F31188704700BF5D
:104E10000C00002000000000000000000000000066
:104E2000EFF30980BFF36F8F154B1A681EF0100F58
:104E300008BF20ED108A20E9F04F10602DE909002D
:104E40004FF0500080F31188BFF34F8FBFF36F8F87
:104E5000FFF7CAFB4FF0000080F3118809BC196806
:104E60000868B0E8F04F1EF0100F08BFB0EC108AD1
:104E700080F30988BFF36F8F704700BFAFF30080E6
:104E8000CC06002008B54FF0500383F31188BFF320
:104E90006F8FBFF34F8FFFF743FA28B14FF0E02336
:104EA0004FF08052C3F8042D002383F3118808BD0E
:104EB0004FF0E022002313619361054B1B68054905
:104EC000A1FB03139B09013B536107231361704747
:104ED00008000020D34D62104FF0E023D3F8002DDE
:104EE0003D4B9A421CD04FF0E023D3F8002D3B4BB2
:104EF0009A421ED030B583B0394B1A78D2B20192A3
:104F0000FF221A701B78DBB28DF803309DF8033056
:104F100003F05003334A1370334B07221A601BE02F
:104F20004FF0500383F31188BFF36F8FBFF34F8FA0
:104F3000FEE74FF0500383F31188BFF36F8FBFF389
:104F40004F8FFEE7284A1368013B13609DF803303A
:104F50005B00DBB28DF803309DF8033013F0800F57
:104F6000F0D1214B1B68032B08D04FF0500383F383
:104F70001188BFF36F8FBFF34F8FFEE71B021A4AF2
:104F8000136003F4E0631360019BDBB2144A1370F7
:104F90004FF0E024D4F8203D43F47003C4F8203DE2
:104FA000D4F8203D43F07043C4F8203DFFF780FF64
:104FB00000250E4B1D60FFF7C3FED4F8343F43F0CD
:104FC0004043C4F8343FFFF7A7FEFFF70DFBFFF7A0
:104FD00083FE284603B030BD71C20F4170C20F413D
:104FE00000E400E0100700200C0700200C00002067
:104FF000EFF305830F2B0ED9114A9A5C114B1B78E6
:105000009A4208D24FF0500383F31188BFF36F8F99
:10501000BFF34F8FFEE74FF0E023D3F80C3D03F4CE
:10502000E063094A1268934208D94FF0500383F3B2
:105030001188BFF36F8FBFF34F8FFEE7704700BF3C
:10504000F0E300E0100700200C070020104A12F0E7
:10505000070F1AD0D11D21F00701C1F59633134473
:105060000A460C480260002141601344083B23F0CB
:1050700007030948036059601960991A5160136069
:10508000064B1960064B196070474FF49633E8E7FA
:105090003007002028070020240700201C070020DC
:1050A00020070020164B1A461B688342FBD3516829
:1050B00002EB010C844509D0416800EB010C63450B
:1050C00009D00360904219D01060704740680144D5
:1050D00051601046F0E710B40A4C2468A3420BD08C
:1050E0005B681944416013681B680360904200D0FC
:1050F00010605DF8044B70470460F7E7704700BF2D
:10510000280700202407002070B50546FFF7F4F8B3
:10511000354B1B685BB175B105F00703C3F1100295
:10512000113BAB4206D3AD1805D5002647E0FFF78B
:105130008DFFF0E70025002D40D02C4B1B68AB42C3
:105140004BD32B4A146801E022461C466368AB42ED
:1051500002D22368002BF7D1234B1B68A3423ED019
:10516000166808362368136063685B1B102B10D920
:10517000601910F0070F08D04FF0500383F3118827
:10518000BFF36F8FBFF34F8FFEE743606560FFF79C
:1051900089FF626815490B689B1A0B6015490968FD
:1051A0008B4201D213490B6042F00042626000233F
:1051B0002360114A13680133136000E00026FFF7F3
:1051C0006BF916F0070F0CD04FF0500383F31188E2
:1051D000BFF36F8FBFF34F8FFEE70026EFE7002688
:1051E000EDE7304670BD00BF2407002020070020F7
:1051F000280700201C0700201807002090B338B5AE
:105200000446A0F1080550F8043C002B08DB4FF0E1
:10521000500383F31188BFF36F8FBFF34F8FFEE707
:1052200050F8082C42B14FF0500383F31188BFF3BC
:105230006F8FBFF34F8FFEE723F0004340F8043C2D
:10524000FFF75AF854F8041C074A13680B4413601C
:105250002846FFF727FF054A136801331360FFF75D
:105260001BF938BD704700BF20070020140700203D
:105270009A4200D28854704770470146002008E0E7
:1052800000EB8000531C0B60137803EB4003A3F189
:1052900030000A681378303BDBB2092BF0D9704735
:1052A0002DE9F04F83B005460E4693461F46DDF8C4
:1052B00030A00D9CDDF838900F9B13F0030F19D12F
:1052C000A046019208E002F1010B3B463146202046
:1052D000A84708F101085A46C845F4D3DDF804B0E0
:1052E00008E0013C02F101083B4631461AF804008F
:1052F000A8474246002CF4D10F9B13F0020F09D1AE
:10530000104603B0BDE8F08F541C3B4631462020C8
:10531000A8472246A2EB0B034B45F5D3F0E72DE956
:10532000F04385B099460C9D0D9C9DF83880DDF8C2
:1053300040E0119F129E16F0020F21D17FB116F0AE
:10534000010F0CD0B8F1000F02D116F00C0F06D0EF
:10535000013F04E04FF0300C05F804C001347445FF
:1053600001D21F2CF6D916F0010F09D0BC4207D28A
:105370001F2C05D84FF0300C05F804C00134F2E7BB
:1053800016F0100F14D016F4806F04D11CB17445C0
:1053900022D0BC4220D00F9B102B33D00F9B022B6E
:1053A0003DD01F2C0ED84FF0300C05F804C001344E
:1053B0001F2C07D8B8F1000F39D04FF02D0C05F88D
:1053C00004C0013403960297019400954B46FFF701
:1053D00067FF05B0BDE8F083B4F1010C1DD00F9B51
:1053E000102B0ED064460F9B102BD7D116F0200F38
:1053F000D4D01F2CD2D84FF0580C05F804C001347B
:10540000CFE7023C16F0200FEDD11F2CEBD84FF068
:10541000780C05F804C00134C3E76446BBE71F2CD1
:10542000D0D84FF0620C05F804C00134B9E716F08B
:10543000040F05D04FF02B0C05F804C00134C1E770
:1054400016F0080FBED04FF0200C05F804C0013450
:10545000B8E7F0B591B0169C189D1B9E0CB926F0CC
:10546000100616F4806E1DD064B34FF0000E19E0E4
:1054700016F0200F24D04127BC445FFA8CFCACF11D
:105480000A0C5FFA8CFC0EF101070EF1400EEE449F
:105490000EF820CCB4FBF5FCAC4214D31F2F12D86D
:1054A000BE466446B4FBF5FC05FB1C4C5FFA8CFC65
:1054B000BCF1090FDCD80CF1300C5FFA8CFCE2E790
:1054C0006127D9E7274606961A9C0594199C0494EF
:1054D00003959DF85C400294019708AC0094FFF797
:1054E0001EFF11B0F0BD2DE9F04F95B009900A9163
:1054F0000B929846DDF878B0DDF87C90229D239FD2
:10550000269E5BEA090201D126F0100616F480649B
:1055100024D05BEA09022FD000241FE016F0200FF0
:1055200028D041231344DBB20A3BDBB204F1010A69
:1055300004F150020DEB020404F8203C2A463B46DD
:1055400058464946FBF728FCAB4579EB070915D3CC
:10555000BAF11F0F12D85446834689462A463B4665
:1055600058464946FBF718FCD2B2092AD6D8303241
:10557000D3B2DBE76123D5E74FF0000A0696259BFF
:105580000593249B049303959DF880300293CDF8F6
:1055900004A00CAB009343460B9A0A990998FFF7B5
:1055A000BEFE15B0BDE8F08F2DE9F04F2DED028B5A
:1055B00093B082460C4693461D4657EC106B8DED1A
:1055C000080B32463B4630463946FBF70DFA0028B9
:1055D00000F00A814FF0FF32B14B30463946FBF7FD
:1055E0002BFA002840F000814FF0FF326FF4801357
:1055F00030463946FBF702FA002840F0F5800022D9
:105600000023DDE9086730463946FBF7F7F9002843
:1056100040F0FD809DED087B8DED067B209B13F413
:105620008063119301D106231E93DDE90601024632
:10563000079BC3F30A50C3F31303904643F07F590B
:1056400049F44019A0F2FF30FAF7FCFE82A3D3E937
:105650000023FAF761FF82A3D3E90023FAF7A6FD3E
:1056600006460F4600228F4B40464946FAF79CFDFE
:105670007DA3D3E90023FAF74FFF02460B463046DD
:105680003946FAF793FDFBF7E1F90646FAF7DAFE39
:105690008046894676A3D3E90023FAF73DFF00222E
:1056A000814BFAF783FDFBF7D1F9074672A3D3E9E3
:1056B000002340464946FAF72FFF80468946384680
:1056C000FAF7C0FE6EA3D3E90023FAF725FF0246DE
:1056D0000B4640464946FAF767FD80468946024632
:1056E0000B46FAF719FFCDE90C0107F2FF3700214D
:1056F0000022CDE90A123B050B9300230A93424690
:105700004B4640464946FAF751FDCDE90E01424667
:105710004B4600204FF08041FAF746FD804689460F
:105720000022624BDDE90C01FBF720F80022604B00
:10573000FAF73CFD02460B46DDE90C01FBF716F8D3
:1057400000225C4BFAF732FD02460B46DDE90C0104
:10575000FBF70CF802460B4640464946FAF726FD91
:1057600002460B46DDE90E01FBF700F80022524B22
:10577000FAF71CFDDDE90A23FAF7CEFE80468946DA
:1057800049EC188BDDE90623FBF756F940B1013EE1
:105790000022474B40464946FAF7E8FF41EC180B18
:1057A00006F16303C62B3BD80427209B13F4006F3C
:1057B00040D035A3D3E90023DDE9068940464946B8
:1057C000FBF730F900283BD031A3D3E90023404652
:1057D0004946FBF713F9002832D01E9BB34221DD66
:1057E0009E1B731E1E931FE0209B02931F9B019321
:1057F0001E9B00939DED080B2B465A4621465046B2
:1058000000F0CAF813B0BDEC028BBDE8F08F9FED3D
:10581000227B8DED067B069607F100430793FDE69C
:105820000527C2E700231E93209B43F48063209347
:1058300000273E461F9B9F4240D2A3EB07083FE054
:105840001E9B002BF6D0119B002BF3D01E9B013B1F
:105850001E93EFE7AFF30080FB799F501344D33FD3
:10586000B3C8608B288AC63F61436F63A787D23F66
:1058700071A379094F930A401655B5BBB16B02402D
:10588000EF39FAFE422EE63F2D431CEBE2361A3F7B
:105890000000000080842E41000000000000000095
:1058A000FFFFEF7F0000F83F0000E03F00002C40CA
:1058B00000002440000018400000F03F4FF00008B6
:1058C000209B13F0020902D00FB14FF000083EB147
:1058D00053EC182BDDE90601FAF748FFCDE9060184
:1058E00000220023DDE90801FBF788F800283BD1FE
:1058F000209B23F400630293CDF804801E9B009349
:105900009DED060B2B465A462146504600F044F8C2
:10591000002F3FF477AF209B13F0200F2CD04FF0D7
:10592000450C00F101082B46024621466046D0474F
:1059300086EAE672A2EBE67205230593013F04971F
:10594000002303930A230293F30F019300922B4643
:10595000424621465046FFF77CFDB9F1000F3FF467
:1059600051AF02461F9F10E0DDE90601024601F13A
:105970000043CDE90623BBE74FF0650CD1E7561C89
:105980002B4621462020D0473246A2EB0B03BB42D8
:10599000F5D3104636E700BF2DE9F04F2DED028B11
:1059A00093B00590089192469B4659EC108B1E9D32
:1059B00042464B4640464946FBF716F8002840D081
:1059C0004FF0FF326FF4801340464946FBF716F85C
:1059D000002845D14FF0FF32AB4B40464946FBF71C
:1059E0002BF800284BD1A4A3D3E900234046494615
:1059F000FBF722F8002858D1A1A3D3E900234046A1
:105A00004946FAF7FBFF00284FD100220023404609
:105A10004946FAF7F3FF002855D100230993209B4C
:105A200013F4806F5AD000241F2C59D8092D57D950
:105A300004F148036B44302203F8202C013D01346B
:105A4000F2E7209B03931F9B0293032301938F4B49
:105A500000935B46524608990598FFF721FC05E143
:105A6000209B03931F9B029304230193884B009375
:105A70005B46524608990598FFF712FCF6E0209B1A
:105A800013F0040F0ED0834B0422209903911F9929
:105A90000291019200935B46524608990598FFF7E0
:105AA000FFFBE3E07C4B0322EFE7209B02931F9B6D
:105AB0000193009549EC108B5B4652460899059876
:105AC000FFF772FDD2E042464B4600200021FAF774
:105AD0006BFB8046894601230993A0E70625A2E7D0
